{
  "address": "0xBA98017090903e19812064c77275A99Dc3306613",
  "abi": [
    {
      "inputs": [
        {
          "internalType": "address",
          "name": "_t1",
          "type": "address"
        },
        {
          "internalType": "address",
          "name": "_t2",
          "type": "address"
        },
        {
          "internalType": "address",
          "name": "_t3",
          "type": "address"
        },
        {
          "internalType": "address",
          "name": "_t4",
          "type": "address"
        },
        {
          "internalType": "address",
          "name": "_t5",
          "type": "address"
        }
      ],
      "stateMutability": "nonpayable",
      "type": "constructor"
    },
    {
      "anonymous": false,
      "inputs": [
        {
          "indexed": true,
          "internalType": "address",
          "name": "owner",
          "type": "address"
        },
        {
          "indexed": true,
          "internalType": "address",
          "name": "approved",
          "type": "address"
        },
        {
          "indexed": true,
          "internalType": "uint256",
          "name": "tokenId",
          "type": "uint256"
        }
      ],
      "name": "Approval",
      "type": "event"
    },
    {
      "anonymous": false,
      "inputs": [
        {
          "indexed": true,
          "internalType": "address",
          "name": "owner",
          "type": "address"
        },
        {
          "indexed": true,
          "internalType": "address",
          "name": "operator",
          "type": "address"
        },
        {
          "indexed": false,
          "internalType": "bool",
          "name": "approved",
          "type": "bool"
        }
      ],
      "name": "ApprovalForAll",
      "type": "event"
    },
    {
      "anonymous": false,
      "inputs": [
        {
          "indexed": true,
          "internalType": "address",
          "name": "previousOwner",
          "type": "address"
        },
        {
          "indexed": true,
          "internalType": "address",
          "name": "newOwner",
          "type": "address"
        }
      ],
      "name": "OwnershipTransferred",
      "type": "event"
    },
    {
      "anonymous": false,
      "inputs": [
        {
          "indexed": true,
          "internalType": "address",
          "name": "from",
          "type": "address"
        },
        {
          "indexed": true,
          "internalType": "address",
          "name": "to",
          "type": "address"
        },
        {
          "indexed": true,
          "internalType": "uint256",
          "name": "tokenId",
          "type": "uint256"
        }
      ],
      "name": "Transfer",
      "type": "event"
    },
    {
      "inputs": [],
      "name": "MAX_SOULS",
      "outputs": [
        {
          "internalType": "uint256",
          "name": "",
          "type": "uint256"
        }
      ],
      "stateMutability": "view",
      "type": "function"
    },
    {
      "inputs": [],
      "name": "SOUL_PROVENANCE",
      "outputs": [
        {
          "internalType": "string",
          "name": "",
          "type": "string"
        }
      ],
      "stateMutability": "view",
      "type": "function"
    },
    {
      "inputs": [
        {
          "internalType": "address",
          "name": "to",
          "type": "address"
        },
        {
          "internalType": "uint256",
          "name": "tokenId",
          "type": "uint256"
        }
      ],
      "name": "approve",
      "outputs": [],
      "stateMutability": "nonpayable",
      "type": "function"
    },
    {
      "inputs": [
        {
          "internalType": "address",
          "name": "owner",
          "type": "address"
        }
      ],
      "name": "balanceOf",
      "outputs": [
        {
          "internalType": "uint256",
          "name": "",
          "type": "uint256"
        }
      ],
      "stateMutability": "view",
      "type": "function"
    },
    {
      "inputs": [
        {
          "internalType": "uint256",
          "name": "tokenId",
          "type": "uint256"
        }
      ],
      "name": "getApproved",
      "outputs": [
        {
          "internalType": "address",
          "name": "",
          "type": "address"
        }
      ],
      "stateMutability": "view",
      "type": "function"
    },
    {
      "inputs": [],
      "name": "getPrice",
      "outputs": [
        {
          "internalType": "uint256",
          "name": "",
          "type": "uint256"
        }
      ],
      "stateMutability": "view",
      "type": "function"
    },
    {
      "inputs": [
        {
          "internalType": "address",
          "name": "owner",
          "type": "address"
        },
        {
          "internalType": "address",
          "name": "operator",
          "type": "address"
        }
      ],
      "name": "isApprovedForAll",
      "outputs": [
        {
          "internalType": "bool",
          "name": "",
          "type": "bool"
        }
      ],
      "stateMutability": "view",
      "type": "function"
    },
    {
      "inputs": [],
      "name": "maxSoulsPurchase",
      "outputs": [
        {
          "internalType": "uint256",
          "name": "",
          "type": "uint256"
        }
      ],
      "stateMutability": "view",
      "type": "function"
    },
    {
      "inputs": [],
      "name": "name",
      "outputs": [
        {
          "internalType": "string",
          "name": "",
          "type": "string"
        }
      ],
      "stateMutability": "view",
      "type": "function"
    },
    {
      "inputs": [],
      "name": "owner",
      "outputs": [
        {
          "internalType": "address",
          "name": "",
          "type": "address"
        }
      ],
      "stateMutability": "view",
      "type": "function"
    },
    {
      "inputs": [
        {
          "internalType": "uint256",
          "name": "tokenId",
          "type": "uint256"
        }
      ],
      "name": "ownerOf",
      "outputs": [
        {
          "internalType": "address",
          "name": "",
          "type": "address"
        }
      ],
      "stateMutability": "view",
      "type": "function"
    },
    {
      "inputs": [
        {
          "internalType": "bool",
          "name": "val",
          "type": "bool"
        }
      ],
      "name": "pause",
      "outputs": [],
      "stateMutability": "nonpayable",
      "type": "function"
    },
    {
      "inputs": [],
      "name": "renounceOwnership",
      "outputs": [],
      "stateMutability": "nonpayable",
      "type": "function"
    },
    {
      "inputs": [
        {
          "internalType": "address",
          "name": "_to",
          "type": "address"
        },
        {
          "internalType": "uint256",
          "name": "_amount",
          "type": "uint256"
        }
      ],
      "name": "reserveSouls",
      "outputs": [],
      "stateMutability": "nonpayable",
      "type": "function"
    },
    {
      "inputs": [
        {
          "internalType": "address",
          "name": "from",
          "type": "address"
        },
        {
          "internalType": "address",
          "name": "to",
          "type": "address"
        },
        {
          "internalType": "uint256",
          "name": "tokenId",
          "type": "uint256"
        }
      ],
      "name": "safeTransferFrom",
      "outputs": [],
      "stateMutability": "nonpayable",
      "type": "function"
    },
    {
      "inputs": [
        {
          "internalType": "address",
          "name": "from",
          "type": "address"
        },
        {
          "internalType": "address",
          "name": "to",
          "type": "address"
        },
        {
          "internalType": "uint256",
          "name": "tokenId",
          "type": "uint256"
        },
        {
          "internalType": "bytes",
          "name": "_data",
          "type": "bytes"
        }
      ],
      "name": "safeTransferFrom",
      "outputs": [],
      "stateMutability": "nonpayable",
      "type": "function"
    },
    {
      "inputs": [],
      "name": "salePaused",
      "outputs": [
        {
          "internalType": "bool",
          "name": "",
          "type": "bool"
        }
      ],
      "stateMutability": "view",
      "type": "function"
    },
    {
      "inputs": [
        {
          "internalType": "uint256",
          "name": "num",
          "type": "uint256"
        }
      ],
      "name": "saveLostSoul",
      "outputs": [],
      "stateMutability": "payable",
      "type": "function"
    },
    {
      "inputs": [
        {
          "internalType": "address",
          "name": "operator",
          "type": "address"
        },
        {
          "internalType": "bool",
          "name": "approved",
          "type": "bool"
        }
      ],
      "name": "setApprovalForAll",
      "outputs": [],
      "stateMutability": "nonpayable",
      "type": "function"
    },
    {
      "inputs": [
        {
          "internalType": "string",
          "name": "baseURI",
          "type": "string"
        }
      ],
      "name": "setBaseURI",
      "outputs": [],
      "stateMutability": "nonpayable",
      "type": "function"
    },
    {
      "inputs": [
        {
          "internalType": "uint256",
          "name": "_newPrice",
          "type": "uint256"
        }
      ],
      "name": "setPrice",
      "outputs": [],
      "stateMutability": "nonpayable",
      "type": "function"
    },
    {
      "inputs": [
        {
          "internalType": "string",
          "name": "provenanceHash",
          "type": "string"
        }
      ],
      "name": "setProvenanceHash",
      "outputs": [],
      "stateMutability": "nonpayable",
      "type": "function"
    },
    {
      "inputs": [
        {
          "internalType": "bytes4",
          "name": "interfaceId",
          "type": "bytes4"
        }
      ],
      "name": "supportsInterface",
      "outputs": [
        {
          "internalType": "bool",
          "name": "",
          "type": "bool"
        }
      ],
      "stateMutability": "view",
      "type": "function"
    },
    {
      "inputs": [],
      "name": "symbol",
      "outputs": [
        {
          "internalType": "string",
          "name": "",
          "type": "string"
        }
      ],
      "stateMutability": "view",
      "type": "function"
    },
    {
      "inputs": [
        {
          "internalType": "uint256",
          "name": "index",
          "type": "uint256"
        }
      ],
      "name": "tokenByIndex",
      "outputs": [
        {
          "internalType": "uint256",
          "name": "",
          "type": "uint256"
        }
      ],
      "stateMutability": "view",
      "type": "function"
    },
    {
      "inputs": [
        {
          "internalType": "address",
          "name": "owner",
          "type": "address"
        },
        {
          "internalType": "uint256",
          "name": "index",
          "type": "uint256"
        }
      ],
      "name": "tokenOfOwnerByIndex",
      "outputs": [
        {
          "internalType": "uint256",
          "name": "",
          "type": "uint256"
        }
      ],
      "stateMutability": "view",
      "type": "function"
    },
    {
      "inputs": [
        {
          "internalType": "uint256",
          "name": "tokenId",
          "type": "uint256"
        }
      ],
      "name": "tokenURI",
      "outputs": [
        {
          "internalType": "string",
          "name": "",
          "type": "string"
        }
      ],
      "stateMutability": "view",
      "type": "function"
    },
    {
      "inputs": [],
      "name": "totalSupply",
      "outputs": [
        {
          "internalType": "uint256",
          "name": "",
          "type": "uint256"
        }
      ],
      "stateMutability": "view",
      "type": "function"
    },
    {
      "inputs": [
        {
          "internalType": "address",
          "name": "from",
          "type": "address"
        },
        {
          "internalType": "address",
          "name": "to",
          "type": "address"
        },
        {
          "internalType": "uint256",
          "name": "tokenId",
          "type": "uint256"
        }
      ],
      "name": "transferFrom",
      "outputs": [],
      "stateMutability": "nonpayable",
      "type": "function"
    },
    {
      "inputs": [
        {
          "internalType": "address",
          "name": "newOwner",
          "type": "address"
        }
      ],
      "name": "transferOwnership",
      "outputs": [],
      "stateMutability": "nonpayable",
      "type": "function"
    },
    {
      "inputs": [
        {
          "internalType": "address",
          "name": "_owner",
          "type": "address"
        }
      ],
      "name": "walletOfOwner",
      "outputs": [
        {
          "internalType": "uint256[]",
          "name": "",
          "type": "uint256[]"
        }
      ],
      "stateMutability": "view",
      "type": "function"
    },
    {
      "inputs": [],
      "name": "withdrawAll",
      "outputs": [],
      "stateMutability": "payable",
      "type": "function"
    }
  ],
  "transactionHash": "0x062709d3fda173b6d405a8047a865cda3a50deac19b91fec46840fceb125a187",
  "args": [
    "0xCdDc78C88eb76ECe9052B535c3ED4e0236d51334",
    "0xe891a92692c60dE1Bb251430A0fCd3522Ef74DA5",
    "0x4Bb1Dee9656Ec6E3eC3Fb839e17313F2aE5EC887",
    "0xc64ed4d552a97d875bCc6C9048d3992Ec842071A",
    "0xc64ed4d552a97d875bCc6C9048d3992Ec842071A"
  ],
  "solcInputHash": "9797e766eddc4247f53198fa3c8d29ab",
  "bytecode": "0x60a06040819052600060808190526200001b91600b91620001ad565b506064600d55666a94d74f430000600e55600f805460ff191660011790553480156200004657600080fd5b506040516200298838038062002988833981016040819052620000699162000270565b604080518082018252600a81526943434352696e6b65627960b01b60208083019182528351808501909452600484526321a1a1a960e11b908401528151919291620000b791600091620001ad565b508051620000cd906001906020840190620001ad565b505050620000ea620000e46200015760201b60201c565b6200015b565b600f80546001600160a01b0396871661010002610100600160a81b0319909116179055601080549486166001600160a01b0319958616179055601180549386169385169390931790925560128054918516918416919091179055601380549190931691161790556200031c565b3390565b600a80546001600160a01b038381166001600160a01b0319831681179093556040519116919082907f8be0079c531659141344cd1fd0a4f28419497f9722a3daafe3b4186f6b6457e090600090a35050565b828054620001bb90620002df565b90600052602060002090601f016020900481019282620001df57600085556200022a565b82601f10620001fa57805160ff19168380011785556200022a565b828001600101855582156200022a579182015b828111156200022a5782518255916020019190600101906200020d565b50620002389291506200023c565b5090565b5b808211156200023857600081556001016200023d565b80516001600160a01b03811681146200026b57600080fd5b919050565b600080600080600060a0868803121562000288578081fd5b620002938662000253565b9450620002a36020870162000253565b9350620002b36040870162000253565b9250620002c36060870162000253565b9150620002d36080870162000253565b90509295509295909350565b600281046001821680620002f457607f821691505b602082108114156200031657634e487b7160e01b600052602260045260246000fd5b50919050565b61265c806200032c6000396000f3fe6080604052600436106101e35760003560e01c8063715018a611610102578063b88d4fde11610095578063d2a2c55711610064578063d2a2c55714610539578063db83ef871461054e578063e985e9c514610561578063f2fde38b14610581576101e3565b8063b88d4fde146104c4578063c87b56dd146104e4578063c9c4d03e14610504578063cdf6d3f914610519576101e3565b806391b7f5ed116100d157806391b7f5ed1461045a57806395d89b411461047a57806398d5fdca1461048f578063a22cb465146104a4576101e3565b8063715018a614610413578063853828b6146104285780638bfb9671146104305780638da5cb5b14610445576101e3565b80632f745c591161017a57806355f804b31161014957806355f804b31461039e5780635d08c1ae146103be5780636352211e146103d357806370a08231146103f3576101e3565b80632f745c591461031157806342842e0e14610331578063438b6300146103515780634f6ccce71461037e576101e3565b8063095ea7b3116101b6578063095ea7b31461028f57806310969523146102af57806318160ddd146102cf57806323b872dd146102f1576101e3565b806301ffc9a7146101e857806302329a291461021e57806306fdde0314610240578063081812fc14610262575b600080fd5b3480156101f457600080fd5b50610208610203366004611d1f565b6105a1565b6040516102159190611ea5565b60405180910390f35b34801561022a57600080fd5b5061023e610239366004611d05565b6105ce565b005b34801561024c57600080fd5b50610255610629565b6040516102159190611eb0565b34801561026e57600080fd5b5061028261027d366004611d9d565b6106bb565b6040516102159190611e10565b34801561029b57600080fd5b5061023e6102aa366004611cdc565b6106fe565b3480156102bb57600080fd5b5061023e6102ca366004611d57565b610796565b3480156102db57600080fd5b506102e46107ec565b60405161021591906124cd565b3480156102fd57600080fd5b5061023e61030c366004611bff565b6107f2565b34801561031d57600080fd5b506102e461032c366004611cdc565b61082a565b34801561033d57600080fd5b5061023e61034c366004611bff565b61087c565b34801561035d57600080fd5b5061037161036c366004611bb3565b610897565b6040516102159190611e61565b34801561038a57600080fd5b506102e4610399366004611d9d565b610955565b3480156103aa57600080fd5b5061023e6103b9366004611d57565b6109b0565b3480156103ca57600080fd5b50610208610a02565b3480156103df57600080fd5b506102826103ee366004611d9d565b610a0b565b3480156103ff57600080fd5b506102e461040e366004611bb3565b610a40565b34801561041f57600080fd5b5061023e610a84565b61023e610acf565b34801561043c57600080fd5b506102e4610c9a565b34801561045157600080fd5b50610282610ca1565b34801561046657600080fd5b5061023e610475366004611d9d565b610cb0565b34801561048657600080fd5b50610255610cf4565b34801561049b57600080fd5b506102e4610d03565b3480156104b057600080fd5b5061023e6104bf366004611cb3565b610d09565b3480156104d057600080fd5b5061023e6104df366004611c3a565b610dd7565b3480156104f057600080fd5b506102556104ff366004611d9d565b610e16565b34801561051057600080fd5b50610255610e99565b34801561052557600080fd5b5061023e610534366004611cdc565b610f27565b34801561054557600080fd5b506102e4610fe1565b61023e61055c366004611d9d565b610fe6565b34801561056d57600080fd5b5061020861057c366004611bcd565b6110c7565b34801561058d57600080fd5b5061023e61059c366004611bb3565b6110f5565b60006001600160e01b0319821663780e9d6360e01b14806105c657506105c682611166565b90505b919050565b6105d66111a6565b6001600160a01b03166105e7610ca1565b6001600160a01b0316146106165760405162461bcd60e51b815260040161060d906122a8565b60405180910390fd5b600f805460ff1916911515919091179055565b60606000805461063890612564565b80601f016020809104026020016040519081016040528092919081815260200182805461066490612564565b80156106b15780601f10610686576101008083540402835291602001916106b1565b820191906000526020600020905b81548152906001019060200180831161069457829003601f168201915b5050505050905090565b60006106c6826111aa565b6106e25760405162461bcd60e51b815260040161060d9061225c565b506000908152600460205260409020546001600160a01b031690565b600061070982610a0b565b9050806001600160a01b0316836001600160a01b0316141561073d5760405162461bcd60e51b815260040161060d90612375565b806001600160a01b031661074f6111a6565b6001600160a01b0316148061076b575061076b8161057c6111a6565b6107875760405162461bcd60e51b815260040161060d90612100565b61079183836111c7565b505050565b61079e6111a6565b6001600160a01b03166107af610ca1565b6001600160a01b0316146107d55760405162461bcd60e51b815260040161060d906122a8565b80516107e890600b906020840190611a83565b5050565b60085490565b6108036107fd6111a6565b82611235565b61081f5760405162461bcd60e51b815260040161060d906123ed565b6107918383836112ba565b600061083583610a40565b82106108535760405162461bcd60e51b815260040161060d90611f1f565b506001600160a01b03919091166000908152600660209081526040808320938352929052205490565b61079183838360405180602001604052806000815250610dd7565b606060006108a483610a40565b905060008167ffffffffffffffff8111156108cf57634e487b7160e01b600052604160045260246000fd5b6040519080825280602002602001820160405280156108f8578160200160208202803683370190505b50905060005b8281101561094d57610910858261082a565b82828151811061093057634e487b7160e01b600052603260045260246000fd5b6020908102919091010152806109458161259f565b9150506108fe565b509392505050565b600061095f6107ec565b821061097d5760405162461bcd60e51b815260040161060d90612481565b6008828154811061099e57634e487b7160e01b600052603260045260246000fd5b90600052602060002001549050919050565b6109b86111a6565b6001600160a01b03166109c9610ca1565b6001600160a01b0316146109ef5760405162461bcd60e51b815260040161060d906122a8565b80516107e890600c906020840190611a83565b600f5460ff1681565b6000818152600260205260408120546001600160a01b0316806105c65760405162461bcd60e51b815260040161060d906121a7565b60006001600160a01b038216610a685760405162461bcd60e51b815260040161060d9061215d565b506001600160a01b031660009081526003602052604090205490565b610a8c6111a6565b6001600160a01b0316610a9d610ca1565b6001600160a01b031614610ac35760405162461bcd60e51b815260040161060d906122a8565b610acd60006113e7565b565b610ad76111a6565b6001600160a01b0316610ae8610ca1565b6001600160a01b031614610b0e5760405162461bcd60e51b815260040161060d906122a8565b60006064610b1d476004612502565b610b2791906124ee565b905060006064610b38476003612502565b610b4291906124ee565b905060006064610b5347600a612502565b610b5d91906124ee565b905060006064610b6e47600a612502565b610b7891906124ee565b905060006064610b89476049612502565b610b9391906124ee565b600f5460405191925061010090046001600160a01b0316906108fc8715029087906000818181858888f19350505050610bcb57600080fd5b6010546040516001600160a01b039091169085156108fc029086906000818181858888f19350505050610bfd57600080fd5b6011546040516001600160a01b039091169084156108fc029085906000818181858888f19350505050610c2f57600080fd5b6012546040516001600160a01b039091169083156108fc029084906000818181858888f19350505050610c6157600080fd5b6013546040516001600160a01b039091169082156108fc029083906000818181858888f19350505050610c9357600080fd5b5050505050565b6201869f81565b600a546001600160a01b031690565b610cb86111a6565b6001600160a01b0316610cc9610ca1565b6001600160a01b031614610cef5760405162461bcd60e51b815260040161060d906122a8565b600e55565b60606001805461063890612564565b600e5490565b610d116111a6565b6001600160a01b0316826001600160a01b03161415610d425760405162461bcd60e51b815260040161060d9061207d565b8060056000610d4f6111a6565b6001600160a01b03908116825260208083019390935260409182016000908120918716808252919093529120805460ff191692151592909217909155610d936111a6565b6001600160a01b03167f17307eab39ab6107e8899845ad3d59bd9653f200f220920489ca2b5937696c3183604051610dcb9190611ea5565b60405180910390a35050565b610de8610de26111a6565b83611235565b610e045760405162461bcd60e51b815260040161060d906123ed565b610e1084848484611439565b50505050565b6060610e21826111aa565b610e3d5760405162461bcd60e51b815260040161060d90612326565b6000610e4761146c565b90506000815111610e675760405180602001604052806000815250610e92565b80610e718461147b565b604051602001610e82929190611de1565b6040516020818303038152906040525b9392505050565b600b8054610ea690612564565b80601f0160208091040260200160405190810160405280929190818152602001828054610ed290612564565b8015610f1f5780601f10610ef457610100808354040283529160200191610f1f565b820191906000526020600020905b815481529060010190602001808311610f0257829003601f168201915b505050505081565b610f2f6111a6565b6001600160a01b0316610f40610ca1565b6001600160a01b031614610f665760405162461bcd60e51b815260040161060d906122a8565b600d54811115610f885760405162461bcd60e51b815260040161060d90611ee8565b6000610f926107ec565b905060005b82811015610fc457610fb284610fad83856124d6565b611596565b80610fbc8161259f565b915050610f97565b5081600d6000828254610fd79190612521565b9091555050505050565b601481565b6000610ff06107ec565b600f5490915060ff16156110165760405162461bcd60e51b815260040161060d90611ec3565b60148211156110375760405162461bcd60e51b815260040161060d9061243e565b600d54611047906201869f612521565b61105183836124d6565b111561106f5760405162461bcd60e51b815260040161060d90612225565b81600e5461107d9190612502565b34101561109c5760405162461bcd60e51b815260040161060d906123b6565b60005b82811015610791576110b533610fad83856124d6565b806110bf8161259f565b91505061109f565b6001600160a01b03918216600090815260056020908152604080832093909416825291909152205460ff1690565b6110fd6111a6565b6001600160a01b031661110e610ca1565b6001600160a01b0316146111345760405162461bcd60e51b815260040161060d906122a8565b6001600160a01b03811661115a5760405162461bcd60e51b815260040161060d90611fbc565b611163816113e7565b50565b60006001600160e01b031982166380ac58cd60e01b148061119757506001600160e01b03198216635b5e139f60e01b145b806105c657506105c6826115b0565b3390565b6000908152600260205260409020546001600160a01b0316151590565b600081815260046020526040902080546001600160a01b0319166001600160a01b03841690811790915581906111fc82610a0b565b6001600160a01b03167f8c5be1e5ebec7d5bd14f71427d1e84f3dd0314c0f7b2291e5b200ac8c7c3b92560405160405180910390a45050565b6000611240826111aa565b61125c5760405162461bcd60e51b815260040161060d906120b4565b600061126783610a0b565b9050806001600160a01b0316846001600160a01b031614806112a25750836001600160a01b0316611297846106bb565b6001600160a01b0316145b806112b257506112b281856110c7565b949350505050565b826001600160a01b03166112cd82610a0b565b6001600160a01b0316146112f35760405162461bcd60e51b815260040161060d906122dd565b6001600160a01b0382166113195760405162461bcd60e51b815260040161060d90612039565b6113248383836115c9565b61132f6000826111c7565b6001600160a01b0383166000908152600360205260408120805460019290611358908490612521565b90915550506001600160a01b03821660009081526003602052604081208054600192906113869084906124d6565b909155505060008181526002602052604080822080546001600160a01b0319166001600160a01b0386811691821790925591518493918716917fddf252ad1be2c89b69c2b068fc378daa952ba7f163c4a11628f55a4df523b3ef91a4505050565b600a80546001600160a01b038381166001600160a01b0319831681179093556040519116919082907f8be0079c531659141344cd1fd0a4f28419497f9722a3daafe3b4186f6b6457e090600090a35050565b6114448484846112ba565b61145084848484611652565b610e105760405162461bcd60e51b815260040161060d90611f6a565b6060600c805461063890612564565b6060816114a057506040805180820190915260018152600360fc1b60208201526105c9565b8160005b81156114ca57806114b48161259f565b91506114c39050600a836124ee565b91506114a4565b60008167ffffffffffffffff8111156114f357634e487b7160e01b600052604160045260246000fd5b6040519080825280601f01601f19166020018201604052801561151d576020820181803683370190505b5090505b84156112b257611532600183612521565b915061153f600a866125ba565b61154a9060306124d6565b60f81b81838151811061156d57634e487b7160e01b600052603260045260246000fd5b60200101906001600160f81b031916908160001a90535061158f600a866124ee565b9450611521565b6107e882826040518060200160405280600081525061176d565b6001600160e01b031981166301ffc9a760e01b14919050565b6115d4838383610791565b6001600160a01b0383166115f0576115eb816117a0565b611613565b816001600160a01b0316836001600160a01b0316146116135761161383826117e4565b6001600160a01b03821661162f5761162a81611881565b610791565b826001600160a01b0316826001600160a01b03161461079157610791828261195a565b6000611666846001600160a01b031661199e565b1561176257836001600160a01b031663150b7a026116826111a6565b8786866040518563ffffffff1660e01b81526004016116a49493929190611e24565b602060405180830381600087803b1580156116be57600080fd5b505af19250505080156116ee575060408051601f3d908101601f191682019092526116eb91810190611d3b565b60015b611748573d80801561171c576040519150601f19603f3d011682016040523d82523d6000602084013e611721565b606091505b5080516117405760405162461bcd60e51b815260040161060d90611f6a565b805181602001fd5b6001600160e01b031916630a85bd0160e11b1490506112b2565b506001949350505050565b61177783836119a4565b6117846000848484611652565b6107915760405162461bcd60e51b815260040161060d90611f6a565b600880546000838152600960205260408120829055600182018355919091527ff3f7a9fe364faab93b216da50a3214154f22a0a2b415b23a84c8169e8b636ee30155565b600060016117f184610a40565b6117fb9190612521565b60008381526007602052604090205490915080821461184e576001600160a01b03841660009081526006602090815260408083208584528252808320548484528184208190558352600790915290208190555b5060009182526007602090815260408084208490556001600160a01b039094168352600681528383209183525290812055565b60085460009061189390600190612521565b600083815260096020526040812054600880549394509092849081106118c957634e487b7160e01b600052603260045260246000fd5b9060005260206000200154905080600883815481106118f857634e487b7160e01b600052603260045260246000fd5b600091825260208083209091019290925582815260099091526040808220849055858252812055600880548061193e57634e487b7160e01b600052603160045260246000fd5b6001900381819060005260206000200160009055905550505050565b600061196583610a40565b6001600160a01b039093166000908152600660209081526040808320868452825280832085905593825260079052919091209190915550565b3b151590565b6001600160a01b0382166119ca5760405162461bcd60e51b815260040161060d906121f0565b6119d3816111aa565b156119f05760405162461bcd60e51b815260040161060d90612002565b6119fc600083836115c9565b6001600160a01b0382166000908152600360205260408120805460019290611a259084906124d6565b909155505060008181526002602052604080822080546001600160a01b0319166001600160a01b03861690811790915590518392907fddf252ad1be2c89b69c2b068fc378daa952ba7f163c4a11628f55a4df523b3ef908290a45050565b828054611a8f90612564565b90600052602060002090601f016020900481019282611ab15760008555611af7565b82601f10611aca57805160ff1916838001178555611af7565b82800160010185558215611af7579182015b82811115611af7578251825591602001919060010190611adc565b50611b03929150611b07565b5090565b5b80821115611b035760008155600101611b08565b600067ffffffffffffffff80841115611b3757611b376125fa565b604051601f8501601f191681016020018281118282101715611b5b57611b5b6125fa565b604052848152915081838501861015611b7357600080fd5b8484602083013760006020868301015250509392505050565b80356001600160a01b03811681146105c957600080fd5b803580151581146105c957600080fd5b600060208284031215611bc4578081fd5b610e9282611b8c565b60008060408385031215611bdf578081fd5b611be883611b8c565b9150611bf660208401611b8c565b90509250929050565b600080600060608486031215611c13578081fd5b611c1c84611b8c565b9250611c2a60208501611b8c565b9150604084013590509250925092565b60008060008060808587031215611c4f578081fd5b611c5885611b8c565b9350611c6660208601611b8c565b925060408501359150606085013567ffffffffffffffff811115611c88578182fd5b8501601f81018713611c98578182fd5b611ca787823560208401611b1c565b91505092959194509250565b60008060408385031215611cc5578182fd5b611cce83611b8c565b9150611bf660208401611ba3565b60008060408385031215611cee578182fd5b611cf783611b8c565b946020939093013593505050565b600060208284031215611d16578081fd5b610e9282611ba3565b600060208284031215611d30578081fd5b8135610e9281612610565b600060208284031215611d4c578081fd5b8151610e9281612610565b600060208284031215611d68578081fd5b813567ffffffffffffffff811115611d7e578182fd5b8201601f81018413611d8e578182fd5b6112b284823560208401611b1c565b600060208284031215611dae578081fd5b5035919050565b60008151808452611dcd816020860160208601612538565b601f01601f19169290920160200192915050565b60008351611df3818460208801612538565b835190830190611e07818360208801612538565b01949350505050565b6001600160a01b0391909116815260200190565b6001600160a01b0385811682528416602082015260408101839052608060608201819052600090611e5790830184611db5565b9695505050505050565b6020808252825182820181905260009190848201906040850190845b81811015611e9957835183529284019291840191600101611e7d565b50909695505050505050565b901515815260200190565b600060208252610e926020830184611db5565b6020808252600b908201526a14d85b19481c185d5cd95960aa1b604082015260600190565b6020808252601c908201527f4578636565647320726573657276656420536f756c20737570706c7900000000604082015260600190565b6020808252602b908201527f455243373231456e756d657261626c653a206f776e657220696e646578206f7560408201526a74206f6620626f756e647360a81b606082015260800190565b60208082526032908201527f4552433732313a207472616e7366657220746f206e6f6e20455243373231526560408201527131b2b4bb32b91034b6b83632b6b2b73a32b960711b606082015260800190565b60208082526026908201527f4f776e61626c653a206e6577206f776e657220697320746865207a65726f206160408201526564647265737360d01b606082015260800190565b6020808252601c908201527f4552433732313a20746f6b656e20616c7265616479206d696e74656400000000604082015260600190565b60208082526024908201527f4552433732313a207472616e7366657220746f20746865207a65726f206164646040820152637265737360e01b606082015260800190565b60208082526019908201527f4552433732313a20617070726f766520746f2063616c6c657200000000000000604082015260600190565b6020808252602c908201527f4552433732313a206f70657261746f7220717565727920666f72206e6f6e657860408201526b34b9ba32b73a103a37b5b2b760a11b606082015260800190565b60208082526038908201527f4552433732313a20617070726f76652063616c6c6572206973206e6f74206f7760408201527f6e6572206e6f7220617070726f76656420666f7220616c6c0000000000000000606082015260800190565b6020808252602a908201527f4552433732313a2062616c616e636520717565727920666f7220746865207a65604082015269726f206164647265737360b01b606082015260800190565b60208082526029908201527f4552433732313a206f776e657220717565727920666f72206e6f6e657869737460408201526832b73a103a37b5b2b760b91b606082015260800190565b6020808252818101527f4552433732313a206d696e7420746f20746865207a65726f2061646472657373604082015260600190565b6020808252601c908201527f45786365656473206d6178696d756d20536f756c7320737570706c7900000000604082015260600190565b6020808252602c908201527f4552433732313a20617070726f76656420717565727920666f72206e6f6e657860408201526b34b9ba32b73a103a37b5b2b760a11b606082015260800190565b6020808252818101527f4f776e61626c653a2063616c6c6572206973206e6f7420746865206f776e6572604082015260600190565b60208082526029908201527f4552433732313a207472616e73666572206f6620746f6b656e2074686174206960408201526839903737ba1037bbb760b91b606082015260800190565b6020808252602f908201527f4552433732314d657461646174613a2055524920717565727920666f72206e6f60408201526e3732bc34b9ba32b73a103a37b5b2b760891b606082015260800190565b60208082526021908201527f4552433732313a20617070726f76616c20746f2063757272656e74206f776e656040820152603960f91b606082015260800190565b60208082526019908201527f45746865722073656e74206973206e6f7420636f727265637400000000000000604082015260600190565b60208082526031908201527f4552433732313a207472616e736665722063616c6c6572206973206e6f74206f6040820152701ddb995c881b9bdc88185c1c1c9bdd9959607a1b606082015260800190565b60208082526023908201527f596f752063616e2061646f70742061206d6178696d756d206f6620323020536f604082015262756c7360e81b606082015260800190565b6020808252602c908201527f455243373231456e756d657261626c653a20676c6f62616c20696e646578206f60408201526b7574206f6620626f756e647360a01b606082015260800190565b90815260200190565b600082198211156124e9576124e96125ce565b500190565b6000826124fd576124fd6125e4565b500490565b600081600019048311821515161561251c5761251c6125ce565b500290565b600082821015612533576125336125ce565b500390565b60005b8381101561255357818101518382015260200161253b565b83811115610e105750506000910152565b60028104600182168061257857607f821691505b6020821081141561259957634e487b7160e01b600052602260045260246000fd5b50919050565b60006000198214156125b3576125b36125ce565b5060010190565b6000826125c9576125c96125e4565b500690565b634e487b7160e01b600052601160045260246000fd5b634e487b7160e01b600052601260045260246000fd5b634e487b7160e01b600052604160045260246000fd5b6001600160e01b03198116811461116357600080fdfea264697066735822122069dce90666b058cd3ef99fdfe97b95ad93c03ef397e88489f6c9cbf05e53d7c864736f6c63430008000033",
  "devdoc": {
    "kind": "dev",
    "methods": {
      "approve(address,uint256)": {
        "details": "See {IERC721-approve}."
      },
      "balanceOf(address)": {
        "details": "See {IERC721-balanceOf}."
      },
      "getApproved(uint256)": {
        "details": "See {IERC721-getApproved}."
      },
      "isApprovedForAll(address,address)": {
        "details": "See {IERC721-isApprovedForAll}."
      },
      "name()": {
        "details": "See {IERC721Metadata-name}."
      },
      "owner()": {
        "details": "Returns the address of the current owner."
      },
      "ownerOf(uint256)": {
        "details": "See {IERC721-ownerOf}."
      },
      "renounceOwnership()": {
        "details": "Leaves the contract without owner. It will not be possible to call `onlyOwner` functions anymore. Can only be called by the current owner. NOTE: Renouncing ownership will leave the contract without an owner, thereby removing any functionality that is only available to the owner."
      },
      "safeTransferFrom(address,address,uint256)": {
        "details": "See {IERC721-safeTransferFrom}."
      },
      "safeTransferFrom(address,address,uint256,bytes)": {
        "details": "See {IERC721-safeTransferFrom}."
      },
      "setApprovalForAll(address,bool)": {
        "details": "See {IERC721-setApprovalForAll}."
      },
      "supportsInterface(bytes4)": {
        "details": "See {IERC165-supportsInterface}."
      },
      "symbol()": {
        "details": "See {IERC721Metadata-symbol}."
      },
      "tokenByIndex(uint256)": {
        "details": "See {IERC721Enumerable-tokenByIndex}."
      },
      "tokenOfOwnerByIndex(address,uint256)": {
        "details": "See {IERC721Enumerable-tokenOfOwnerByIndex}."
      },
      "tokenURI(uint256)": {
        "details": "See {IERC721Metadata-tokenURI}."
      },
      "totalSupply()": {
        "details": "See {IERC721Enumerable-totalSupply}."
      },
      "transferFrom(address,address,uint256)": {
        "details": "See {IERC721-transferFrom}."
      },
      "transferOwnership(address)": {
        "details": "Transfers ownership of the contract to a new account (`newOwner`). Can only be called by the current owner."
      }
    },
    "version": 1
  },
  "userdoc": {
    "kind": "user",
    "methods": {},
    "version": 1
  },
  "storageLayout": {
    "storage": [
      {
        "astId": 129,
        "contract": "contracts/CCCRinkeby.sol:CCCRinkeby",
        "label": "_name",
        "offset": 0,
        "slot": "0",
        "type": "t_string_storage"
      },
      {
        "astId": 131,
        "contract": "contracts/CCCRinkeby.sol:CCCRinkeby",
        "label": "_symbol",
        "offset": 0,
        "slot": "1",
        "type": "t_string_storage"
      },
      {
        "astId": 135,
        "contract": "contracts/CCCRinkeby.sol:CCCRinkeby",
        "label": "_owners",
        "offset": 0,
        "slot": "2",
        "type": "t_mapping(t_uint256,t_address)"
      },
      {
        "astId": 139,
        "contract": "contracts/CCCRinkeby.sol:CCCRinkeby",
        "label": "_balances",
        "offset": 0,
        "slot": "3",
        "type": "t_mapping(t_address,t_uint256)"
      },
      {
        "astId": 143,
        "contract": "contracts/CCCRinkeby.sol:CCCRinkeby",
        "label": "_tokenApprovals",
        "offset": 0,
        "slot": "4",
        "type": "t_mapping(t_uint256,t_address)"
      },
      {
        "astId": 149,
        "contract": "contracts/CCCRinkeby.sol:CCCRinkeby",
        "label": "_operatorApprovals",
        "offset": 0,
        "slot": "5",
        "type": "t_mapping(t_address,t_mapping(t_address,t_bool))"
      },
      {
        "astId": 1070,
        "contract": "contracts/CCCRinkeby.sol:CCCRinkeby",
        "label": "_ownedTokens",
        "offset": 0,
        "slot": "6",
        "type": "t_mapping(t_address,t_mapping(t_uint256,t_uint256))"
      },
      {
        "astId": 1074,
        "contract": "contracts/CCCRinkeby.sol:CCCRinkeby",
        "label": "_ownedTokensIndex",
        "offset": 0,
        "slot": "7",
        "type": "t_mapping(t_uint256,t_uint256)"
      },
      {
        "astId": 1077,
        "contract": "contracts/CCCRinkeby.sol:CCCRinkeby",
        "label": "_allTokens",
        "offset": 0,
        "slot": "8",
        "type": "t_array(t_uint256)dyn_storage"
      },
      {
        "astId": 1081,
        "contract": "contracts/CCCRinkeby.sol:CCCRinkeby",
        "label": "_allTokensIndex",
        "offset": 0,
        "slot": "9",
        "type": "t_mapping(t_uint256,t_uint256)"
      },
      {
        "astId": 7,
        "contract": "contracts/CCCRinkeby.sol:CCCRinkeby",
        "label": "_owner",
        "offset": 0,
        "slot": "10",
        "type": "t_address"
      },
      {
        "astId": 2021,
        "contract": "contracts/CCCRinkeby.sol:CCCRinkeby",
        "label": "SOUL_PROVENANCE",
        "offset": 0,
        "slot": "11",
        "type": "t_string_storage"
      },
      {
        "astId": 2023,
        "contract": "contracts/CCCRinkeby.sol:CCCRinkeby",
        "label": "_baseTokenURI",
        "offset": 0,
        "slot": "12",
        "type": "t_string_storage"
      },
      {
        "astId": 2029,
        "contract": "contracts/CCCRinkeby.sol:CCCRinkeby",
        "label": "soulReserved",
        "offset": 0,
        "slot": "13",
        "type": "t_uint256"
      },
      {
        "astId": 2035,
        "contract": "contracts/CCCRinkeby.sol:CCCRinkeby",
        "label": "soulPrice",
        "offset": 0,
        "slot": "14",
        "type": "t_uint256"
      },
      {
        "astId": 2038,
        "contract": "contracts/CCCRinkeby.sol:CCCRinkeby",
        "label": "salePaused",
        "offset": 0,
        "slot": "15",
        "type": "t_bool"
      },
      {
        "astId": 2040,
        "contract": "contracts/CCCRinkeby.sol:CCCRinkeby",
        "label": "t1",
        "offset": 1,
        "slot": "15",
        "type": "t_address"
      },
      {
        "astId": 2042,
        "contract": "contracts/CCCRinkeby.sol:CCCRinkeby",
        "label": "t2",
        "offset": 0,
        "slot": "16",
        "type": "t_address"
      },
      {
        "astId": 2044,
        "contract": "contracts/CCCRinkeby.sol:CCCRinkeby",
        "label": "t3",
        "offset": 0,
        "slot": "17",
        "type": "t_address"
      },
      {
        "astId": 2046,
        "contract": "contracts/CCCRinkeby.sol:CCCRinkeby",
        "label": "t4",
        "offset": 0,
        "slot": "18",
        "type": "t_address"
      },
      {
        "astId": 2048,
        "contract": "contracts/CCCRinkeby.sol:CCCRinkeby",
        "label": "t5",
        "offset": 0,
        "slot": "19",
        "type": "t_address"
      }
    ],
    "types": {
      "t_address": {
        "encoding": "inplace",
        "label": "address",
        "numberOfBytes": "20"
      },
      "t_array(t_uint256)dyn_storage": {
        "base": "t_uint256",
        "encoding": "dynamic_array",
        "label": "uint256[]",
        "numberOfBytes": "32"
      },
      "t_bool": {
        "encoding": "inplace",
        "label": "bool",
        "numberOfBytes": "1"
      },
      "t_mapping(t_address,t_bool)": {
        "encoding": "mapping",
        "key": "t_address",
        "label": "mapping(address => bool)",
        "numberOfBytes": "32",
        "value": "t_bool"
      },
      "t_mapping(t_address,t_mapping(t_address,t_bool))": {
        "encoding": "mapping",
        "key": "t_address",
        "label": "mapping(address => mapping(address => bool))",
        "numberOfBytes": "32",
        "value": "t_mapping(t_address,t_bool)"
      },
      "t_mapping(t_address,t_mapping(t_uint256,t_uint256))": {
        "encoding": "mapping",
        "key": "t_address",
        "label": "mapping(address => mapping(uint256 => uint256))",
        "numberOfBytes": "32",
        "value": "t_mapping(t_uint256,t_uint256)"
      },
      "t_mapping(t_address,t_uint256)": {
        "encoding": "mapping",
        "key": "t_address",
        "label": "mapping(address => uint256)",
        "numberOfBytes": "32",
        "value": "t_uint256"
      },
      "t_mapping(t_uint256,t_address)": {
        "encoding": "mapping",
        "key": "t_uint256",
        "label": "mapping(uint256 => address)",
        "numberOfBytes": "32",
        "value": "t_address"
      },
      "t_mapping(t_uint256,t_uint256)": {
        "encoding": "mapping",
        "key": "t_uint256",
        "label": "mapping(uint256 => uint256)",
        "numberOfBytes": "32",
        "value": "t_uint256"
      },
      "t_string_storage": {
        "encoding": "bytes",
        "label": "string",
        "numberOfBytes": "32"
      },
      "t_uint256": {
        "encoding": "inplace",
        "label": "uint256",
        "numberOfBytes": "32"
      }
    }
  }
}