{
  "address": "0x4C4a2f8c81640e47606d3fd77B353E87Ba015584",
  "abi": [
    {
      "inputs": [
        {
          "internalType": "address",
          "name": "LostSoulsContract",
          "type": "address"
        }
      ],
      "stateMutability": "nonpayable",
      "type": "constructor"
    },
    {
      "anonymous": false,
      "inputs": [
        {
          "indexed": true,
          "internalType": "address",
          "name": "owner",
          "type": "address"
        },
        {
          "indexed": true,
          "internalType": "address",
          "name": "approved",
          "type": "address"
        },
        {
          "indexed": true,
          "internalType": "uint256",
          "name": "tokenId",
          "type": "uint256"
        }
      ],
      "name": "Approval",
      "type": "event"
    },
    {
      "anonymous": false,
      "inputs": [
        {
          "indexed": true,
          "internalType": "address",
          "name": "owner",
          "type": "address"
        },
        {
          "indexed": true,
          "internalType": "address",
          "name": "operator",
          "type": "address"
        },
        {
          "indexed": false,
          "internalType": "bool",
          "name": "approved",
          "type": "bool"
        }
      ],
      "name": "ApprovalForAll",
      "type": "event"
    },
    {
      "anonymous": false,
      "inputs": [
        {
          "indexed": true,
          "internalType": "address",
          "name": "previousOwner",
          "type": "address"
        },
        {
          "indexed": true,
          "internalType": "address",
          "name": "newOwner",
          "type": "address"
        }
      ],
      "name": "OwnershipTransferred",
      "type": "event"
    },
    {
      "anonymous": false,
      "inputs": [
        {
          "indexed": true,
          "internalType": "address",
          "name": "from",
          "type": "address"
        },
        {
          "indexed": true,
          "internalType": "address",
          "name": "to",
          "type": "address"
        },
        {
          "indexed": true,
          "internalType": "uint256",
          "name": "tokenId",
          "type": "uint256"
        }
      ],
      "name": "Transfer",
      "type": "event"
    },
    {
      "inputs": [],
      "name": "MAX_SOULPASS",
      "outputs": [
        {
          "internalType": "uint256",
          "name": "",
          "type": "uint256"
        }
      ],
      "stateMutability": "view",
      "type": "function"
    },
    {
      "inputs": [],
      "name": "SOUL_PROVENANCE",
      "outputs": [
        {
          "internalType": "string",
          "name": "",
          "type": "string"
        }
      ],
      "stateMutability": "view",
      "type": "function"
    },
    {
      "inputs": [
        {
          "internalType": "address",
          "name": "to",
          "type": "address"
        },
        {
          "internalType": "uint256",
          "name": "tokenId",
          "type": "uint256"
        }
      ],
      "name": "approve",
      "outputs": [],
      "stateMutability": "nonpayable",
      "type": "function"
    },
    {
      "inputs": [
        {
          "internalType": "address",
          "name": "owner",
          "type": "address"
        }
      ],
      "name": "balanceOf",
      "outputs": [
        {
          "internalType": "uint256",
          "name": "",
          "type": "uint256"
        }
      ],
      "stateMutability": "view",
      "type": "function"
    },
    {
      "inputs": [
        {
          "internalType": "uint256[]",
          "name": "soulArray",
          "type": "uint256[]"
        }
      ],
      "name": "claimAllSoulPass",
      "outputs": [],
      "stateMutability": "nonpayable",
      "type": "function"
    },
    {
      "inputs": [
        {
          "internalType": "uint256",
          "name": "soulOne",
          "type": "uint256"
        },
        {
          "internalType": "uint256",
          "name": "soulTwo",
          "type": "uint256"
        }
      ],
      "name": "claimSoulPass",
      "outputs": [],
      "stateMutability": "nonpayable",
      "type": "function"
    },
    {
      "inputs": [
        {
          "internalType": "uint256",
          "name": "tokenId",
          "type": "uint256"
        }
      ],
      "name": "getApproved",
      "outputs": [
        {
          "internalType": "address",
          "name": "",
          "type": "address"
        }
      ],
      "stateMutability": "view",
      "type": "function"
    },
    {
      "inputs": [
        {
          "internalType": "address",
          "name": "owner",
          "type": "address"
        },
        {
          "internalType": "address",
          "name": "operator",
          "type": "address"
        }
      ],
      "name": "isApprovedForAll",
      "outputs": [
        {
          "internalType": "bool",
          "name": "",
          "type": "bool"
        }
      ],
      "stateMutability": "view",
      "type": "function"
    },
    {
      "inputs": [],
      "name": "mintPaused",
      "outputs": [
        {
          "internalType": "bool",
          "name": "",
          "type": "bool"
        }
      ],
      "stateMutability": "view",
      "type": "function"
    },
    {
      "inputs": [],
      "name": "name",
      "outputs": [
        {
          "internalType": "string",
          "name": "",
          "type": "string"
        }
      ],
      "stateMutability": "view",
      "type": "function"
    },
    {
      "inputs": [],
      "name": "owner",
      "outputs": [
        {
          "internalType": "address",
          "name": "",
          "type": "address"
        }
      ],
      "stateMutability": "view",
      "type": "function"
    },
    {
      "inputs": [
        {
          "internalType": "uint256",
          "name": "tokenId",
          "type": "uint256"
        }
      ],
      "name": "ownerOf",
      "outputs": [
        {
          "internalType": "address",
          "name": "",
          "type": "address"
        }
      ],
      "stateMutability": "view",
      "type": "function"
    },
    {
      "inputs": [
        {
          "internalType": "bool",
          "name": "val",
          "type": "bool"
        }
      ],
      "name": "pause",
      "outputs": [],
      "stateMutability": "nonpayable",
      "type": "function"
    },
    {
      "inputs": [],
      "name": "renounceOwnership",
      "outputs": [],
      "stateMutability": "nonpayable",
      "type": "function"
    },
    {
      "inputs": [
        {
          "internalType": "address",
          "name": "from",
          "type": "address"
        },
        {
          "internalType": "address",
          "name": "to",
          "type": "address"
        },
        {
          "internalType": "uint256",
          "name": "tokenId",
          "type": "uint256"
        }
      ],
      "name": "safeTransferFrom",
      "outputs": [],
      "stateMutability": "nonpayable",
      "type": "function"
    },
    {
      "inputs": [
        {
          "internalType": "address",
          "name": "from",
          "type": "address"
        },
        {
          "internalType": "address",
          "name": "to",
          "type": "address"
        },
        {
          "internalType": "uint256",
          "name": "tokenId",
          "type": "uint256"
        },
        {
          "internalType": "bytes",
          "name": "_data",
          "type": "bytes"
        }
      ],
      "name": "safeTransferFrom",
      "outputs": [],
      "stateMutability": "nonpayable",
      "type": "function"
    },
    {
      "inputs": [
        {
          "internalType": "address",
          "name": "operator",
          "type": "address"
        },
        {
          "internalType": "bool",
          "name": "approved",
          "type": "bool"
        }
      ],
      "name": "setApprovalForAll",
      "outputs": [],
      "stateMutability": "nonpayable",
      "type": "function"
    },
    {
      "inputs": [
        {
          "internalType": "string",
          "name": "baseURI",
          "type": "string"
        }
      ],
      "name": "setBaseURI",
      "outputs": [],
      "stateMutability": "nonpayable",
      "type": "function"
    },
    {
      "inputs": [
        {
          "internalType": "string",
          "name": "provenanceHash",
          "type": "string"
        }
      ],
      "name": "setProvenanceHash",
      "outputs": [],
      "stateMutability": "nonpayable",
      "type": "function"
    },
    {
      "inputs": [
        {
          "internalType": "uint256",
          "name": "",
          "type": "uint256"
        }
      ],
      "name": "soulClaimed",
      "outputs": [
        {
          "internalType": "bool",
          "name": "",
          "type": "bool"
        }
      ],
      "stateMutability": "view",
      "type": "function"
    },
    {
      "inputs": [
        {
          "internalType": "address",
          "name": "_owner",
          "type": "address"
        }
      ],
      "name": "soulNotClaimed",
      "outputs": [
        {
          "internalType": "uint256[]",
          "name": "",
          "type": "uint256[]"
        }
      ],
      "stateMutability": "view",
      "type": "function"
    },
    {
      "inputs": [
        {
          "internalType": "bytes4",
          "name": "interfaceId",
          "type": "bytes4"
        }
      ],
      "name": "supportsInterface",
      "outputs": [
        {
          "internalType": "bool",
          "name": "",
          "type": "bool"
        }
      ],
      "stateMutability": "view",
      "type": "function"
    },
    {
      "inputs": [],
      "name": "symbol",
      "outputs": [
        {
          "internalType": "string",
          "name": "",
          "type": "string"
        }
      ],
      "stateMutability": "view",
      "type": "function"
    },
    {
      "inputs": [
        {
          "internalType": "uint256",
          "name": "index",
          "type": "uint256"
        }
      ],
      "name": "tokenByIndex",
      "outputs": [
        {
          "internalType": "uint256",
          "name": "",
          "type": "uint256"
        }
      ],
      "stateMutability": "view",
      "type": "function"
    },
    {
      "inputs": [
        {
          "internalType": "address",
          "name": "owner",
          "type": "address"
        },
        {
          "internalType": "uint256",
          "name": "index",
          "type": "uint256"
        }
      ],
      "name": "tokenOfOwnerByIndex",
      "outputs": [
        {
          "internalType": "uint256",
          "name": "",
          "type": "uint256"
        }
      ],
      "stateMutability": "view",
      "type": "function"
    },
    {
      "inputs": [
        {
          "internalType": "uint256",
          "name": "tokenId",
          "type": "uint256"
        }
      ],
      "name": "tokenURI",
      "outputs": [
        {
          "internalType": "string",
          "name": "",
          "type": "string"
        }
      ],
      "stateMutability": "view",
      "type": "function"
    },
    {
      "inputs": [],
      "name": "totalSupply",
      "outputs": [
        {
          "internalType": "uint256",
          "name": "",
          "type": "uint256"
        }
      ],
      "stateMutability": "view",
      "type": "function"
    },
    {
      "inputs": [
        {
          "internalType": "address",
          "name": "from",
          "type": "address"
        },
        {
          "internalType": "address",
          "name": "to",
          "type": "address"
        },
        {
          "internalType": "uint256",
          "name": "tokenId",
          "type": "uint256"
        }
      ],
      "name": "transferFrom",
      "outputs": [],
      "stateMutability": "nonpayable",
      "type": "function"
    },
    {
      "inputs": [
        {
          "internalType": "address",
          "name": "newOwner",
          "type": "address"
        }
      ],
      "name": "transferOwnership",
      "outputs": [],
      "stateMutability": "nonpayable",
      "type": "function"
    },
    {
      "inputs": [
        {
          "internalType": "address",
          "name": "_owner",
          "type": "address"
        }
      ],
      "name": "walletOfOwner",
      "outputs": [
        {
          "internalType": "uint256[]",
          "name": "",
          "type": "uint256[]"
        }
      ],
      "stateMutability": "view",
      "type": "function"
    }
  ],
  "transactionHash": "0x351f103b6d67bb279c74efe0f633a474478827ec964b7328b63bfb2c9bffd4ce",
  "args": [
    "0x04C89607413713Ec9775E14b954286519d836FEf"
  ],
  "solcInputHash": "b10652fe5fb444620da7a1403a05224a",
  "bytecode": "0x60a06040819052600060808190526200001b91600b9162000152565b50600d805460ff191660011790553480156200003657600080fd5b50604051620028f2380380620028f28339810160408190526200005991620001f8565b6040805180820182526008815267536f756c5061737360c01b602080830191825283518085019094526002845261053560f41b908401528151919291620000a39160009162000152565b508051620000b990600190602084019062000152565b505050620000d6620000d0620000fc60201b60201c565b62000100565b600f80546001600160a01b0319166001600160a01b039290921691909117905562000265565b3390565b600a80546001600160a01b038381166001600160a01b0319831681179093556040519116919082907f8be0079c531659141344cd1fd0a4f28419497f9722a3daafe3b4186f6b6457e090600090a35050565b828054620001609062000228565b90600052602060002090601f016020900481019282620001845760008555620001cf565b82601f106200019f57805160ff1916838001178555620001cf565b82800160010185558215620001cf579182015b82811115620001cf578251825591602001919060010190620001b2565b50620001dd929150620001e1565b5090565b5b80821115620001dd5760008155600101620001e2565b6000602082840312156200020a578081fd5b81516001600160a01b038116811462000221578182fd5b9392505050565b6002810460018216806200023d57607f821691505b602082108114156200025f57634e487b7160e01b600052602260045260246000fd5b50919050565b61267d80620002756000396000f3fe608060405234801561001057600080fd5b50600436106101da5760003560e01c806370a0823111610104578063a22cb465116100a2578063c9c4d03e11610071578063c9c4d03e146103cc578063e985e9c5146103d4578063f2a68546146103e7578063f2fde38b146103fa576101da565b8063a22cb46514610380578063b88d4fde14610393578063b9a0a978146103a6578063c87b56dd146103b9576101da565b80637e4831d3116100de5780637e4831d3146103555780638da5cb5b1461035d57806395d89b41146103655780639687a52e1461036d576101da565b806370a0823114610327578063715018a61461033a57806375b9e95e14610342576101da565b806318160ddd1161017c578063438b63001161014b578063438b6300146102ce5780634f6ccce7146102ee57806355f804b3146103015780636352211e14610314576101da565b806318160ddd1461028d57806323b872dd146102955780632f745c59146102a857806342842e0e146102bb576101da565b8063081812fc116101b8578063081812fc14610232578063095ea7b3146102525780631096952314610265578063123ab5bd14610278576101da565b806301ffc9a7146101df57806302329a291461020857806306fdde031461021d575b600080fd5b6101f26101ed366004611c9d565b61040d565b6040516101ff9190611e44565b60405180910390f35b61021b610216366004611c83565b61043a565b005b610225610495565b6040516101ff9190611e4f565b610245610240366004611d1b565b610527565b6040516101ff9190611daf565b61021b610260366004611bb1565b61056a565b61021b610273366004611cd5565b610602565b610280610658565b6040516101ff91906124ce565b61028061065e565b61021b6102a3366004611ac0565b610664565b6102806102b6366004611bb1565b61069c565b61021b6102c9366004611ac0565b6106ee565b6102e16102dc366004611a50565b610709565b6040516101ff9190611e00565b6102806102fc366004611d1b565b6107c7565b61021b61030f366004611cd5565b610822565b610245610322366004611d1b565b610874565b610280610335366004611a50565b6108a9565b61021b6108ed565b6102e1610350366004611a50565b610938565b6101f2610a06565b610245610a0f565b610225610a1e565b61021b61037b366004611d33565b610a2d565b61021b61038e366004611b7d565b610c62565b61021b6103a1366004611b00565b610d30565b6101f26103b4366004611d1b565b610d6f565b6102256103c7366004611d1b565b610d84565b610225610e07565b6101f26103e2366004611a88565b610e95565b61021b6103f5366004611bdc565b610ec3565b61021b610408366004611a50565b610fc1565b60006001600160e01b0319821663780e9d6360e01b1480610432575061043282611032565b90505b919050565b610442611072565b6001600160a01b0316610453610a0f565b6001600160a01b0316146104825760405162461bcd60e51b815260040161047990612210565b60405180910390fd5b600d805460ff1916911515919091179055565b6060600080546104a490612570565b80601f01602080910402602001604051908101604052809291908181526020018280546104d090612570565b801561051d5780601f106104f25761010080835404028352916020019161051d565b820191906000526020600020905b81548152906001019060200180831161050057829003601f168201915b5050505050905090565b600061053282611076565b61054e5760405162461bcd60e51b8152600401610479906121c4565b506000908152600460205260409020546001600160a01b031690565b600061057582610874565b9050806001600160a01b0316836001600160a01b031614156105a95760405162461bcd60e51b815260040161047990612382565b806001600160a01b03166105bb611072565b6001600160a01b031614806105d757506105d7816103e2611072565b6105f35760405162461bcd60e51b81526004016104799061207a565b6105fd8383611093565b505050565b61060a611072565b6001600160a01b031661061b610a0f565b6001600160a01b0316146106415760405162461bcd60e51b815260040161047990612210565b805161065490600b90602084019061194f565b5050565b61138881565b60085490565b61067561066f611072565b82611101565b6106915760405162461bcd60e51b8152600401610479906123fa565b6105fd838383611186565b60006106a7836108a9565b82106106c55760405162461bcd60e51b815260040161047990611e62565b506001600160a01b03919091166000908152600660209081526040808320938352929052205490565b6105fd83838360405180602001604052806000815250610d30565b60606000610716836108a9565b905060008167ffffffffffffffff81111561074157634e487b7160e01b600052604160045260246000fd5b60405190808252806020026020018201604052801561076a578160200160208202803683370190505b50905060005b828110156107bf57610782858261069c565b8282815181106107a257634e487b7160e01b600052603260045260246000fd5b6020908102919091010152806107b7816125ab565b915050610770565b509392505050565b60006107d161065e565b82106107ef5760405162461bcd60e51b81526004016104799061244b565b6008828154811061081057634e487b7160e01b600052603260045260246000fd5b90600052602060002001549050919050565b61082a611072565b6001600160a01b031661083b610a0f565b6001600160a01b0316146108615760405162461bcd60e51b815260040161047990612210565b805161065490600c90602084019061194f565b6000818152600260205260408120546001600160a01b0316806104325760405162461bcd60e51b815260040161047990612121565b60006001600160a01b0382166108d15760405162461bcd60e51b8152600401610479906120d7565b506001600160a01b031660009081526003602052604090205490565b6108f5611072565b6001600160a01b0316610906610a0f565b6001600160a01b03161461092c5760405162461bcd60e51b815260040161047990612210565b61093660006112b3565b565b60606000610945836108a9565b905060008167ffffffffffffffff81111561097057634e487b7160e01b600052604160045260246000fd5b604051908082528060200260200182016040528015610999578160200160208202803683370190505b50905060005b828110156107bf576000818152600e602052604090205460ff166109f4576109c7858261069c565b8282815181106109e757634e487b7160e01b600052603260045260246000fd5b6020026020010181815250505b806109fe816125ab565b91505061099f565b600d5460ff1681565b600a546001600160a01b031690565b6060600180546104a490612570565b6000610a3761065e565b600d5490915060ff1615610a5d5760405162461bcd60e51b81526004016104799061219f565b611388811115610a7f5760405162461bcd60e51b8152600401610479906122c5565b600f546040516331a9108f60e11b815233916001600160a01b031690636352211e90610aaf9087906004016124ce565b60206040518083038186803b158015610ac757600080fd5b505afa158015610adb573d6000803e3d6000fd5b505050506040513d601f19601f82011682018060405250810190610aff9190611a6c565b6001600160a01b031614610b255760405162461bcd60e51b81526004016104799061234b565b600f546040516331a9108f60e11b815233916001600160a01b031690636352211e90610b559086906004016124ce565b60206040518083038186803b158015610b6d57600080fd5b505afa158015610b81573d6000803e3d6000fd5b505050506040513d601f19601f82011682018060405250810190610ba59190611a6c565b6001600160a01b031614610bcb5760405162461bcd60e51b815260040161047990612245565b6000838152600e602052604090205460ff1615610bfa5760405162461bcd60e51b815260040161047990612497565b6000828152600e602052604090205460ff1615610c295760405162461bcd60e51b8152600401610479906123c3565b6000838152600e60205260408082208054600160ff19918216811790925585845291909220805490911690911790556105fd3382611305565b610c6a611072565b6001600160a01b0316826001600160a01b03161415610c9b5760405162461bcd60e51b815260040161047990611ff7565b8060056000610ca8611072565b6001600160a01b03908116825260208083019390935260409182016000908120918716808252919093529120805460ff191692151592909217909155610cec611072565b6001600160a01b03167f17307eab39ab6107e8899845ad3d59bd9653f200f220920489ca2b5937696c3183604051610d249190611e44565b60405180910390a35050565b610d41610d3b611072565b83611101565b610d5d5760405162461bcd60e51b8152600401610479906123fa565b610d698484848461131f565b50505050565b600e6020526000908152604090205460ff1681565b6060610d8f82611076565b610dab5760405162461bcd60e51b8152600401610479906122fc565b6000610db5611352565b90506000815111610dd55760405180602001604052806000815250610e00565b80610ddf84611361565b604051602001610df0929190611d80565b6040516020818303038152906040525b9392505050565b600b8054610e1490612570565b80601f0160208091040260200160405190810160405280929190818152602001828054610e4090612570565b8015610e8d5780601f10610e6257610100808354040283529160200191610e8d565b820191906000526020600020905b815481529060010190602001808311610e7057829003601f168201915b505050505081565b6001600160a01b03918216600090815260056020908152604080832093909416825291909152205460ff1690565b6000610ecd61065e565b600d5490915060ff1615610ef35760405162461bcd60e51b81526004016104799061219f565b6113888110610f145760405162461bcd60e51b8152600401610479906122c5565b60028251610f2291906125c6565b15610f3f5760405162461bcd60e51b815260040161047990611f7c565b60005b82518110156105fd57610faf838281518110610f6e57634e487b7160e01b600052603260045260246000fd5b602002602001015184836001610f849190612501565b81518110610fa257634e487b7160e01b600052603260045260246000fd5b6020026020010151610a2d565b610fba600282612501565b9050610f42565b610fc9611072565b6001600160a01b0316610fda610a0f565b6001600160a01b0316146110005760405162461bcd60e51b815260040161047990612210565b6001600160a01b0381166110265760405162461bcd60e51b815260040161047990611eff565b61102f816112b3565b50565b60006001600160e01b031982166380ac58cd60e01b148061106357506001600160e01b03198216635b5e139f60e01b145b8061043257506104328261147c565b3390565b6000908152600260205260409020546001600160a01b0316151590565b600081815260046020526040902080546001600160a01b0319166001600160a01b03841690811790915581906110c882610874565b6001600160a01b03167f8c5be1e5ebec7d5bd14f71427d1e84f3dd0314c0f7b2291e5b200ac8c7c3b92560405160405180910390a45050565b600061110c82611076565b6111285760405162461bcd60e51b81526004016104799061202e565b600061113383610874565b9050806001600160a01b0316846001600160a01b0316148061116e5750836001600160a01b031661116384610527565b6001600160a01b0316145b8061117e575061117e8185610e95565b949350505050565b826001600160a01b031661119982610874565b6001600160a01b0316146111bf5760405162461bcd60e51b81526004016104799061227c565b6001600160a01b0382166111e55760405162461bcd60e51b815260040161047990611fb3565b6111f0838383611495565b6111fb600082611093565b6001600160a01b038316600090815260036020526040812080546001929061122490849061252d565b90915550506001600160a01b0382166000908152600360205260408120805460019290611252908490612501565b909155505060008181526002602052604080822080546001600160a01b0319166001600160a01b0386811691821790925591518493918716917fddf252ad1be2c89b69c2b068fc378daa952ba7f163c4a11628f55a4df523b3ef91a4505050565b600a80546001600160a01b038381166001600160a01b0319831681179093556040519116919082907f8be0079c531659141344cd1fd0a4f28419497f9722a3daafe3b4186f6b6457e090600090a35050565b61065482826040518060200160405280600081525061151e565b61132a848484611186565b61133684848484611551565b610d695760405162461bcd60e51b815260040161047990611ead565b6060600c80546104a490612570565b60608161138657506040805180820190915260018152600360fc1b6020820152610435565b8160005b81156113b0578061139a816125ab565b91506113a99050600a83612519565b915061138a565b60008167ffffffffffffffff8111156113d957634e487b7160e01b600052604160045260246000fd5b6040519080825280601f01601f191660200182016040528015611403576020820181803683370190505b5090505b841561117e5761141860018361252d565b9150611425600a866125c6565b611430906030612501565b60f81b81838151811061145357634e487b7160e01b600052603260045260246000fd5b60200101906001600160f81b031916908160001a905350611475600a86612519565b9450611407565b6001600160e01b031981166301ffc9a760e01b14919050565b6114a08383836105fd565b6001600160a01b0383166114bc576114b78161166c565b6114df565b816001600160a01b0316836001600160a01b0316146114df576114df83826116b0565b6001600160a01b0382166114fb576114f68161174d565b6105fd565b826001600160a01b0316826001600160a01b0316146105fd576105fd8282611826565b611528838361186a565b6115356000848484611551565b6105fd5760405162461bcd60e51b815260040161047990611ead565b6000611565846001600160a01b0316611949565b1561166157836001600160a01b031663150b7a02611581611072565b8786866040518563ffffffff1660e01b81526004016115a39493929190611dc3565b602060405180830381600087803b1580156115bd57600080fd5b505af19250505080156115ed575060408051601f3d908101601f191682019092526115ea91810190611cb9565b60015b611647573d80801561161b576040519150601f19603f3d011682016040523d82523d6000602084013e611620565b606091505b50805161163f5760405162461bcd60e51b815260040161047990611ead565b805181602001fd5b6001600160e01b031916630a85bd0160e11b14905061117e565b506001949350505050565b600880546000838152600960205260408120829055600182018355919091527ff3f7a9fe364faab93b216da50a3214154f22a0a2b415b23a84c8169e8b636ee30155565b600060016116bd846108a9565b6116c7919061252d565b60008381526007602052604090205490915080821461171a576001600160a01b03841660009081526006602090815260408083208584528252808320548484528184208190558352600790915290208190555b5060009182526007602090815260408084208490556001600160a01b039094168352600681528383209183525290812055565b60085460009061175f9060019061252d565b6000838152600960205260408120546008805493945090928490811061179557634e487b7160e01b600052603260045260246000fd5b9060005260206000200154905080600883815481106117c457634e487b7160e01b600052603260045260246000fd5b600091825260208083209091019290925582815260099091526040808220849055858252812055600880548061180a57634e487b7160e01b600052603160045260246000fd5b6001900381819060005260206000200160009055905550505050565b6000611831836108a9565b6001600160a01b039093166000908152600660209081526040808320868452825280832085905593825260079052919091209190915550565b6001600160a01b0382166118905760405162461bcd60e51b81526004016104799061216a565b61189981611076565b156118b65760405162461bcd60e51b815260040161047990611f45565b6118c260008383611495565b6001600160a01b03821660009081526003602052604081208054600192906118eb908490612501565b909155505060008181526002602052604080822080546001600160a01b0319166001600160a01b03861690811790915590518392907fddf252ad1be2c89b69c2b068fc378daa952ba7f163c4a11628f55a4df523b3ef908290a45050565b3b151590565b82805461195b90612570565b90600052602060002090601f01602090048101928261197d57600085556119c3565b82601f1061199657805160ff19168380011785556119c3565b828001600101855582156119c3579182015b828111156119c35782518255916020019190600101906119a8565b506119cf9291506119d3565b5090565b5b808211156119cf57600081556001016119d4565b600067ffffffffffffffff831115611a0257611a02612606565b611a15601f8401601f19166020016124d7565b9050828152838383011115611a2957600080fd5b828260208301376000602084830101529392505050565b8035801515811461043557600080fd5b600060208284031215611a61578081fd5b8135610e008161261c565b600060208284031215611a7d578081fd5b8151610e008161261c565b60008060408385031215611a9a578081fd5b8235611aa58161261c565b91506020830135611ab58161261c565b809150509250929050565b600080600060608486031215611ad4578081fd5b8335611adf8161261c565b92506020840135611aef8161261c565b929592945050506040919091013590565b60008060008060808587031215611b15578081fd5b8435611b208161261c565b93506020850135611b308161261c565b925060408501359150606085013567ffffffffffffffff811115611b52578182fd5b8501601f81018713611b62578182fd5b611b71878235602084016119e8565b91505092959194509250565b60008060408385031215611b8f578182fd5b8235611b9a8161261c565b9150611ba860208401611a40565b90509250929050565b60008060408385031215611bc3578182fd5b8235611bce8161261c565b946020939093013593505050565b60006020808385031215611bee578182fd5b823567ffffffffffffffff80821115611c05578384fd5b818501915085601f830112611c18578384fd5b813581811115611c2a57611c2a612606565b8381029150611c3a8483016124d7565b8181528481019084860184860187018a1015611c54578788fd5b8795505b83861015611c76578035835260019590950194918601918601611c58565b5098975050505050505050565b600060208284031215611c94578081fd5b610e0082611a40565b600060208284031215611cae578081fd5b8135610e0081612631565b600060208284031215611cca578081fd5b8151610e0081612631565b600060208284031215611ce6578081fd5b813567ffffffffffffffff811115611cfc578182fd5b8201601f81018413611d0c578182fd5b61117e848235602084016119e8565b600060208284031215611d2c578081fd5b5035919050565b60008060408385031215611d45578182fd5b50508035926020909101359150565b60008151808452611d6c816020860160208601612544565b601f01601f19169290920160200192915050565b60008351611d92818460208801612544565b835190830190611da6818360208801612544565b01949350505050565b6001600160a01b0391909116815260200190565b6001600160a01b0385811682528416602082015260408101839052608060608201819052600090611df690830184611d54565b9695505050505050565b6020808252825182820181905260009190848201906040850190845b81811015611e3857835183529284019291840191600101611e1c565b50909695505050505050565b901515815260200190565b600060208252610e006020830184611d54565b6020808252602b908201527f455243373231456e756d657261626c653a206f776e657220696e646578206f7560408201526a74206f6620626f756e647360a81b606082015260800190565b60208082526032908201527f4552433732313a207472616e7366657220746f206e6f6e20455243373231526560408201527131b2b4bb32b91034b6b83632b6b2b73a32b960711b606082015260800190565b60208082526026908201527f4f776e61626c653a206e6577206f776e657220697320746865207a65726f206160408201526564647265737360d01b606082015260800190565b6020808252601c908201527f4552433732313a20746f6b656e20616c7265616479206d696e74656400000000604082015260600190565b6020808252601c908201527f53656e6420616e206576656e20616d6f756e74206f6620536f756c7300000000604082015260600190565b60208082526024908201527f4552433732313a207472616e7366657220746f20746865207a65726f206164646040820152637265737360e01b606082015260800190565b60208082526019908201527f4552433732313a20617070726f766520746f2063616c6c657200000000000000604082015260600190565b6020808252602c908201527f4552433732313a206f70657261746f7220717565727920666f72206e6f6e657860408201526b34b9ba32b73a103a37b5b2b760a11b606082015260800190565b60208082526038908201527f4552433732313a20617070726f76652063616c6c6572206973206e6f74206f7760408201527f6e6572206e6f7220617070726f76656420666f7220616c6c0000000000000000606082015260800190565b6020808252602a908201527f4552433732313a2062616c616e636520717565727920666f7220746865207a65604082015269726f206164647265737360b01b606082015260800190565b60208082526029908201527f4552433732313a206f776e657220717565727920666f72206e6f6e657869737460408201526832b73a103a37b5b2b760b91b606082015260800190565b6020808252818101527f4552433732313a206d696e7420746f20746865207a65726f2061646472657373604082015260600190565b6020808252600b908201526a135a5b9d081c185d5cd95960aa1b604082015260600190565b6020808252602c908201527f4552433732313a20617070726f76656420717565727920666f72206e6f6e657860408201526b34b9ba32b73a103a37b5b2b760a11b606082015260800190565b6020808252818101527f4f776e61626c653a2063616c6c6572206973206e6f7420746865206f776e6572604082015260600190565b60208082526017908201527f596f7520646f206e6f74206f776e20736f756c2074776f000000000000000000604082015260600190565b60208082526029908201527f4552433732313a207472616e73666572206f6620746f6b656e2074686174206960408201526839903737ba1037bbb760b91b606082015260800190565b6020808252601f908201527f45786365656473206d6178696d756d20536f756c5061737320737570706c7900604082015260600190565b6020808252602f908201527f4552433732314d657461646174613a2055524920717565727920666f72206e6f60408201526e3732bc34b9ba32b73a103a37b5b2b760891b606082015260800190565b60208082526017908201527f596f7520646f206e6f74206f776e20736f756c206f6e65000000000000000000604082015260600190565b60208082526021908201527f4552433732313a20617070726f76616c20746f2063757272656e74206f776e656040820152603960f91b606082015260800190565b60208082526018908201527f536f756c2074776f20616c726561647920636c61696d65640000000000000000604082015260600190565b60208082526031908201527f4552433732313a207472616e736665722063616c6c6572206973206e6f74206f6040820152701ddb995c881b9bdc88185c1c1c9bdd9959607a1b606082015260800190565b6020808252602c908201527f455243373231456e756d657261626c653a20676c6f62616c20696e646578206f60408201526b7574206f6620626f756e647360a01b606082015260800190565b60208082526018908201527f536f756c206f6e6520616c726561647920636c61696d65640000000000000000604082015260600190565b90815260200190565b60405181810167ffffffffffffffff811182821017156124f9576124f9612606565b604052919050565b60008219821115612514576125146125da565b500190565b600082612528576125286125f0565b500490565b60008282101561253f5761253f6125da565b500390565b60005b8381101561255f578181015183820152602001612547565b83811115610d695750506000910152565b60028104600182168061258457607f821691505b602082108114156125a557634e487b7160e01b600052602260045260246000fd5b50919050565b60006000198214156125bf576125bf6125da565b5060010190565b6000826125d5576125d56125f0565b500690565b634e487b7160e01b600052601160045260246000fd5b634e487b7160e01b600052601260045260246000fd5b634e487b7160e01b600052604160045260246000fd5b6001600160a01b038116811461102f57600080fd5b6001600160e01b03198116811461102f57600080fdfea2646970667358221220730f2b365af2616c9c7ca118e0c9fdec8004f96d16aa1161190ade379197648664736f6c63430008000033",
  "devdoc": {
    "kind": "dev",
    "methods": {
      "approve(address,uint256)": {
        "details": "See {IERC721-approve}."
      },
      "balanceOf(address)": {
        "details": "See {IERC721-balanceOf}."
      },
      "getApproved(uint256)": {
        "details": "See {IERC721-getApproved}."
      },
      "isApprovedForAll(address,address)": {
        "details": "See {IERC721-isApprovedForAll}."
      },
      "name()": {
        "details": "See {IERC721Metadata-name}."
      },
      "owner()": {
        "details": "Returns the address of the current owner."
      },
      "ownerOf(uint256)": {
        "details": "See {IERC721-ownerOf}."
      },
      "renounceOwnership()": {
        "details": "Leaves the contract without owner. It will not be possible to call `onlyOwner` functions anymore. Can only be called by the current owner. NOTE: Renouncing ownership will leave the contract without an owner, thereby removing any functionality that is only available to the owner."
      },
      "safeTransferFrom(address,address,uint256)": {
        "details": "See {IERC721-safeTransferFrom}."
      },
      "safeTransferFrom(address,address,uint256,bytes)": {
        "details": "See {IERC721-safeTransferFrom}."
      },
      "setApprovalForAll(address,bool)": {
        "details": "See {IERC721-setApprovalForAll}."
      },
      "supportsInterface(bytes4)": {
        "details": "See {IERC165-supportsInterface}."
      },
      "symbol()": {
        "details": "See {IERC721Metadata-symbol}."
      },
      "tokenByIndex(uint256)": {
        "details": "See {IERC721Enumerable-tokenByIndex}."
      },
      "tokenOfOwnerByIndex(address,uint256)": {
        "details": "See {IERC721Enumerable-tokenOfOwnerByIndex}."
      },
      "tokenURI(uint256)": {
        "details": "See {IERC721Metadata-tokenURI}."
      },
      "totalSupply()": {
        "details": "See {IERC721Enumerable-totalSupply}."
      },
      "transferFrom(address,address,uint256)": {
        "details": "See {IERC721-transferFrom}."
      },
      "transferOwnership(address)": {
        "details": "Transfers ownership of the contract to a new account (`newOwner`). Can only be called by the current owner."
      }
    },
    "version": 1
  },
  "userdoc": {
    "kind": "user",
    "methods": {},
    "version": 1
  },
  "storageLayout": {
    "storage": [
      {
        "astId": 129,
        "contract": "contracts/SoulPass.sol:SoulPass",
        "label": "_name",
        "offset": 0,
        "slot": "0",
        "type": "t_string_storage"
      },
      {
        "astId": 131,
        "contract": "contracts/SoulPass.sol:SoulPass",
        "label": "_symbol",
        "offset": 0,
        "slot": "1",
        "type": "t_string_storage"
      },
      {
        "astId": 135,
        "contract": "contracts/SoulPass.sol:SoulPass",
        "label": "_owners",
        "offset": 0,
        "slot": "2",
        "type": "t_mapping(t_uint256,t_address)"
      },
      {
        "astId": 139,
        "contract": "contracts/SoulPass.sol:SoulPass",
        "label": "_balances",
        "offset": 0,
        "slot": "3",
        "type": "t_mapping(t_address,t_uint256)"
      },
      {
        "astId": 143,
        "contract": "contracts/SoulPass.sol:SoulPass",
        "label": "_tokenApprovals",
        "offset": 0,
        "slot": "4",
        "type": "t_mapping(t_uint256,t_address)"
      },
      {
        "astId": 149,
        "contract": "contracts/SoulPass.sol:SoulPass",
        "label": "_operatorApprovals",
        "offset": 0,
        "slot": "5",
        "type": "t_mapping(t_address,t_mapping(t_address,t_bool))"
      },
      {
        "astId": 1068,
        "contract": "contracts/SoulPass.sol:SoulPass",
        "label": "_ownedTokens",
        "offset": 0,
        "slot": "6",
        "type": "t_mapping(t_address,t_mapping(t_uint256,t_uint256))"
      },
      {
        "astId": 1072,
        "contract": "contracts/SoulPass.sol:SoulPass",
        "label": "_ownedTokensIndex",
        "offset": 0,
        "slot": "7",
        "type": "t_mapping(t_uint256,t_uint256)"
      },
      {
        "astId": 1075,
        "contract": "contracts/SoulPass.sol:SoulPass",
        "label": "_allTokens",
        "offset": 0,
        "slot": "8",
        "type": "t_array(t_uint256)dyn_storage"
      },
      {
        "astId": 1079,
        "contract": "contracts/SoulPass.sol:SoulPass",
        "label": "_allTokensIndex",
        "offset": 0,
        "slot": "9",
        "type": "t_mapping(t_uint256,t_uint256)"
      },
      {
        "astId": 7,
        "contract": "contracts/SoulPass.sol:SoulPass",
        "label": "_owner",
        "offset": 0,
        "slot": "10",
        "type": "t_address"
      },
      {
        "astId": 2826,
        "contract": "contracts/SoulPass.sol:SoulPass",
        "label": "SOUL_PROVENANCE",
        "offset": 0,
        "slot": "11",
        "type": "t_string_storage"
      },
      {
        "astId": 2828,
        "contract": "contracts/SoulPass.sol:SoulPass",
        "label": "_baseTokenURI",
        "offset": 0,
        "slot": "12",
        "type": "t_string_storage"
      },
      {
        "astId": 2834,
        "contract": "contracts/SoulPass.sol:SoulPass",
        "label": "mintPaused",
        "offset": 0,
        "slot": "13",
        "type": "t_bool"
      },
      {
        "astId": 2838,
        "contract": "contracts/SoulPass.sol:SoulPass",
        "label": "soulClaimed",
        "offset": 0,
        "slot": "14",
        "type": "t_mapping(t_uint256,t_bool)"
      },
      {
        "astId": 2840,
        "contract": "contracts/SoulPass.sol:SoulPass",
        "label": "lostSouls",
        "offset": 0,
        "slot": "15",
        "type": "t_address"
      }
    ],
    "types": {
      "t_address": {
        "encoding": "inplace",
        "label": "address",
        "numberOfBytes": "20"
      },
      "t_array(t_uint256)dyn_storage": {
        "base": "t_uint256",
        "encoding": "dynamic_array",
        "label": "uint256[]",
        "numberOfBytes": "32"
      },
      "t_bool": {
        "encoding": "inplace",
        "label": "bool",
        "numberOfBytes": "1"
      },
      "t_mapping(t_address,t_bool)": {
        "encoding": "mapping",
        "key": "t_address",
        "label": "mapping(address => bool)",
        "numberOfBytes": "32",
        "value": "t_bool"
      },
      "t_mapping(t_address,t_mapping(t_address,t_bool))": {
        "encoding": "mapping",
        "key": "t_address",
        "label": "mapping(address => mapping(address => bool))",
        "numberOfBytes": "32",
        "value": "t_mapping(t_address,t_bool)"
      },
      "t_mapping(t_address,t_mapping(t_uint256,t_uint256))": {
        "encoding": "mapping",
        "key": "t_address",
        "label": "mapping(address => mapping(uint256 => uint256))",
        "numberOfBytes": "32",
        "value": "t_mapping(t_uint256,t_uint256)"
      },
      "t_mapping(t_address,t_uint256)": {
        "encoding": "mapping",
        "key": "t_address",
        "label": "mapping(address => uint256)",
        "numberOfBytes": "32",
        "value": "t_uint256"
      },
      "t_mapping(t_uint256,t_address)": {
        "encoding": "mapping",
        "key": "t_uint256",
        "label": "mapping(uint256 => address)",
        "numberOfBytes": "32",
        "value": "t_address"
      },
      "t_mapping(t_uint256,t_bool)": {
        "encoding": "mapping",
        "key": "t_uint256",
        "label": "mapping(uint256 => bool)",
        "numberOfBytes": "32",
        "value": "t_bool"
      },
      "t_mapping(t_uint256,t_uint256)": {
        "encoding": "mapping",
        "key": "t_uint256",
        "label": "mapping(uint256 => uint256)",
        "numberOfBytes": "32",
        "value": "t_uint256"
      },
      "t_string_storage": {
        "encoding": "bytes",
        "label": "string",
        "numberOfBytes": "32"
      },
      "t_uint256": {
        "encoding": "inplace",
        "label": "uint256",
        "numberOfBytes": "32"
      }
    }
  }
}