{
  "address": "0x14C591692285f4DE933c382089824477Dbc67da4",
  "abi": [
    {
      "inputs": [
        {
          "internalType": "address",
          "name": "_t1",
          "type": "address"
        },
        {
          "internalType": "address",
          "name": "_t2",
          "type": "address"
        },
        {
          "internalType": "address",
          "name": "_t3",
          "type": "address"
        },
        {
          "internalType": "address",
          "name": "_t4",
          "type": "address"
        },
        {
          "internalType": "address",
          "name": "_t5",
          "type": "address"
        }
      ],
      "stateMutability": "nonpayable",
      "type": "constructor"
    },
    {
      "anonymous": false,
      "inputs": [
        {
          "indexed": true,
          "internalType": "address",
          "name": "owner",
          "type": "address"
        },
        {
          "indexed": true,
          "internalType": "address",
          "name": "approved",
          "type": "address"
        },
        {
          "indexed": true,
          "internalType": "uint256",
          "name": "tokenId",
          "type": "uint256"
        }
      ],
      "name": "Approval",
      "type": "event"
    },
    {
      "anonymous": false,
      "inputs": [
        {
          "indexed": true,
          "internalType": "address",
          "name": "owner",
          "type": "address"
        },
        {
          "indexed": true,
          "internalType": "address",
          "name": "operator",
          "type": "address"
        },
        {
          "indexed": false,
          "internalType": "bool",
          "name": "approved",
          "type": "bool"
        }
      ],
      "name": "ApprovalForAll",
      "type": "event"
    },
    {
      "anonymous": false,
      "inputs": [
        {
          "indexed": true,
          "internalType": "address",
          "name": "previousOwner",
          "type": "address"
        },
        {
          "indexed": true,
          "internalType": "address",
          "name": "newOwner",
          "type": "address"
        }
      ],
      "name": "OwnershipTransferred",
      "type": "event"
    },
    {
      "anonymous": false,
      "inputs": [
        {
          "indexed": true,
          "internalType": "address",
          "name": "from",
          "type": "address"
        },
        {
          "indexed": true,
          "internalType": "address",
          "name": "to",
          "type": "address"
        },
        {
          "indexed": true,
          "internalType": "uint256",
          "name": "tokenId",
          "type": "uint256"
        }
      ],
      "name": "Transfer",
      "type": "event"
    },
    {
      "inputs": [],
      "name": "MAX_XXXX",
      "outputs": [
        {
          "internalType": "uint256",
          "name": "",
          "type": "uint256"
        }
      ],
      "stateMutability": "view",
      "type": "function"
    },
    {
      "inputs": [],
      "name": "XXXX_PROVENANCE",
      "outputs": [
        {
          "internalType": "string",
          "name": "",
          "type": "string"
        }
      ],
      "stateMutability": "view",
      "type": "function"
    },
    {
      "inputs": [
        {
          "internalType": "address",
          "name": "to",
          "type": "address"
        },
        {
          "internalType": "uint256",
          "name": "tokenId",
          "type": "uint256"
        }
      ],
      "name": "approve",
      "outputs": [],
      "stateMutability": "nonpayable",
      "type": "function"
    },
    {
      "inputs": [
        {
          "internalType": "address",
          "name": "owner",
          "type": "address"
        }
      ],
      "name": "balanceOf",
      "outputs": [
        {
          "internalType": "uint256",
          "name": "",
          "type": "uint256"
        }
      ],
      "stateMutability": "view",
      "type": "function"
    },
    {
      "inputs": [
        {
          "internalType": "uint256",
          "name": "tokenId",
          "type": "uint256"
        }
      ],
      "name": "getApproved",
      "outputs": [
        {
          "internalType": "address",
          "name": "",
          "type": "address"
        }
      ],
      "stateMutability": "view",
      "type": "function"
    },
    {
      "inputs": [],
      "name": "getPrice",
      "outputs": [
        {
          "internalType": "uint256",
          "name": "",
          "type": "uint256"
        }
      ],
      "stateMutability": "view",
      "type": "function"
    },
    {
      "inputs": [
        {
          "internalType": "address",
          "name": "owner",
          "type": "address"
        },
        {
          "internalType": "address",
          "name": "operator",
          "type": "address"
        }
      ],
      "name": "isApprovedForAll",
      "outputs": [
        {
          "internalType": "bool",
          "name": "",
          "type": "bool"
        }
      ],
      "stateMutability": "view",
      "type": "function"
    },
    {
      "inputs": [],
      "name": "maxxxxxPurchase",
      "outputs": [
        {
          "internalType": "uint256",
          "name": "",
          "type": "uint256"
        }
      ],
      "stateMutability": "view",
      "type": "function"
    },
    {
      "inputs": [],
      "name": "name",
      "outputs": [
        {
          "internalType": "string",
          "name": "",
          "type": "string"
        }
      ],
      "stateMutability": "view",
      "type": "function"
    },
    {
      "inputs": [],
      "name": "owner",
      "outputs": [
        {
          "internalType": "address",
          "name": "",
          "type": "address"
        }
      ],
      "stateMutability": "view",
      "type": "function"
    },
    {
      "inputs": [
        {
          "internalType": "uint256",
          "name": "tokenId",
          "type": "uint256"
        }
      ],
      "name": "ownerOf",
      "outputs": [
        {
          "internalType": "address",
          "name": "",
          "type": "address"
        }
      ],
      "stateMutability": "view",
      "type": "function"
    },
    {
      "inputs": [
        {
          "internalType": "bool",
          "name": "val",
          "type": "bool"
        }
      ],
      "name": "pause",
      "outputs": [],
      "stateMutability": "nonpayable",
      "type": "function"
    },
    {
      "inputs": [],
      "name": "renounceOwnership",
      "outputs": [],
      "stateMutability": "nonpayable",
      "type": "function"
    },
    {
      "inputs": [
        {
          "internalType": "address",
          "name": "_to",
          "type": "address"
        },
        {
          "internalType": "uint256",
          "name": "_amount",
          "type": "uint256"
        }
      ],
      "name": "reserveXXXX",
      "outputs": [],
      "stateMutability": "nonpayable",
      "type": "function"
    },
    {
      "inputs": [
        {
          "internalType": "address",
          "name": "from",
          "type": "address"
        },
        {
          "internalType": "address",
          "name": "to",
          "type": "address"
        },
        {
          "internalType": "uint256",
          "name": "tokenId",
          "type": "uint256"
        }
      ],
      "name": "safeTransferFrom",
      "outputs": [],
      "stateMutability": "nonpayable",
      "type": "function"
    },
    {
      "inputs": [
        {
          "internalType": "address",
          "name": "from",
          "type": "address"
        },
        {
          "internalType": "address",
          "name": "to",
          "type": "address"
        },
        {
          "internalType": "uint256",
          "name": "tokenId",
          "type": "uint256"
        },
        {
          "internalType": "bytes",
          "name": "_data",
          "type": "bytes"
        }
      ],
      "name": "safeTransferFrom",
      "outputs": [],
      "stateMutability": "nonpayable",
      "type": "function"
    },
    {
      "inputs": [
        {
          "internalType": "uint256",
          "name": "num",
          "type": "uint256"
        }
      ],
      "name": "savexxxxxxxx",
      "outputs": [],
      "stateMutability": "payable",
      "type": "function"
    },
    {
      "inputs": [
        {
          "internalType": "address",
          "name": "operator",
          "type": "address"
        },
        {
          "internalType": "bool",
          "name": "approved",
          "type": "bool"
        }
      ],
      "name": "setApprovalForAll",
      "outputs": [],
      "stateMutability": "nonpayable",
      "type": "function"
    },
    {
      "inputs": [
        {
          "internalType": "string",
          "name": "baseURI",
          "type": "string"
        }
      ],
      "name": "setBaseURI",
      "outputs": [],
      "stateMutability": "nonpayable",
      "type": "function"
    },
    {
      "inputs": [
        {
          "internalType": "uint256",
          "name": "_newPrice",
          "type": "uint256"
        }
      ],
      "name": "setPrice",
      "outputs": [],
      "stateMutability": "nonpayable",
      "type": "function"
    },
    {
      "inputs": [
        {
          "internalType": "string",
          "name": "provenanceHash",
          "type": "string"
        }
      ],
      "name": "setProvenanceHash",
      "outputs": [],
      "stateMutability": "nonpayable",
      "type": "function"
    },
    {
      "inputs": [
        {
          "internalType": "bytes4",
          "name": "interfaceId",
          "type": "bytes4"
        }
      ],
      "name": "supportsInterface",
      "outputs": [
        {
          "internalType": "bool",
          "name": "",
          "type": "bool"
        }
      ],
      "stateMutability": "view",
      "type": "function"
    },
    {
      "inputs": [],
      "name": "symbol",
      "outputs": [
        {
          "internalType": "string",
          "name": "",
          "type": "string"
        }
      ],
      "stateMutability": "view",
      "type": "function"
    },
    {
      "inputs": [
        {
          "internalType": "uint256",
          "name": "index",
          "type": "uint256"
        }
      ],
      "name": "tokenByIndex",
      "outputs": [
        {
          "internalType": "uint256",
          "name": "",
          "type": "uint256"
        }
      ],
      "stateMutability": "view",
      "type": "function"
    },
    {
      "inputs": [
        {
          "internalType": "address",
          "name": "owner",
          "type": "address"
        },
        {
          "internalType": "uint256",
          "name": "index",
          "type": "uint256"
        }
      ],
      "name": "tokenOfOwnerByIndex",
      "outputs": [
        {
          "internalType": "uint256",
          "name": "",
          "type": "uint256"
        }
      ],
      "stateMutability": "view",
      "type": "function"
    },
    {
      "inputs": [
        {
          "internalType": "uint256",
          "name": "tokenId",
          "type": "uint256"
        }
      ],
      "name": "tokenURI",
      "outputs": [
        {
          "internalType": "string",
          "name": "",
          "type": "string"
        }
      ],
      "stateMutability": "view",
      "type": "function"
    },
    {
      "inputs": [],
      "name": "totalSupply",
      "outputs": [
        {
          "internalType": "uint256",
          "name": "",
          "type": "uint256"
        }
      ],
      "stateMutability": "view",
      "type": "function"
    },
    {
      "inputs": [
        {
          "internalType": "address",
          "name": "from",
          "type": "address"
        },
        {
          "internalType": "address",
          "name": "to",
          "type": "address"
        },
        {
          "internalType": "uint256",
          "name": "tokenId",
          "type": "uint256"
        }
      ],
      "name": "transferFrom",
      "outputs": [],
      "stateMutability": "nonpayable",
      "type": "function"
    },
    {
      "inputs": [
        {
          "internalType": "address",
          "name": "newOwner",
          "type": "address"
        }
      ],
      "name": "transferOwnership",
      "outputs": [],
      "stateMutability": "nonpayable",
      "type": "function"
    },
    {
      "inputs": [
        {
          "internalType": "address",
          "name": "_owner",
          "type": "address"
        }
      ],
      "name": "walletOfOwner",
      "outputs": [
        {
          "internalType": "uint256[]",
          "name": "",
          "type": "uint256[]"
        }
      ],
      "stateMutability": "view",
      "type": "function"
    },
    {
      "inputs": [],
      "name": "withdrawAll",
      "outputs": [],
      "stateMutability": "payable",
      "type": "function"
    },
    {
      "inputs": [],
      "name": "xxxxPaused",
      "outputs": [
        {
          "internalType": "bool",
          "name": "",
          "type": "bool"
        }
      ],
      "stateMutability": "view",
      "type": "function"
    }
  ],
  "transactionHash": "0x2c89f5f2d5822248a60982f377c74ab39f0b0cceb34f2f0ef09e8f56149b27ff",
  "args": [
    "0xCdDc78C88eb76ECe9052B535c3ED4e0236d51334",
    "0xe891a92692c60dE1Bb251430A0fCd3522Ef74DA5",
    "0x4Bb1Dee9656Ec6E3eC3Fb839e17313F2aE5EC887",
    "0xc64ed4d552a97d875bCc6C9048d3992Ec842071A",
    "0x8E2c5A78a1dB5Ff459B81A706e0F4bEda091B5e6"
  ],
  "solcInputHash": "516961f74f89160cc28c615b4d4a3004",
  "bytecode": "0x60a06040819052600060808190526200001b91600b91620001ab565b506064600d55666a94d74f430000600e55600f805460ff191660011790553480156200004657600080fd5b50604051620029b0380380620029b083398101604081905262000069916200026e565b604080518082018252600a815269466f7252696e6b65627960b01b602080830191825283518085019094526002845261232960f11b908401528151919291620000b591600091620001ab565b508051620000cb906001906020840190620001ab565b505050620000e8620000e26200015560201b60201c565b62000159565b600f80546001600160a01b0396871661010002610100600160a81b0319909116179055601080549486166001600160a01b0319958616179055601180549386169385169390931790925560128054918516918416919091179055601380549190931691161790556200031a565b3390565b600a80546001600160a01b038381166001600160a01b0319831681179093556040519116919082907f8be0079c531659141344cd1fd0a4f28419497f9722a3daafe3b4186f6b6457e090600090a35050565b828054620001b990620002dd565b90600052602060002090601f016020900481019282620001dd576000855562000228565b82601f10620001f857805160ff191683800117855562000228565b8280016001018555821562000228579182015b82811115620002285782518255916020019190600101906200020b565b50620002369291506200023a565b5090565b5b808211156200023657600081556001016200023b565b80516001600160a01b03811681146200026957600080fd5b919050565b600080600080600060a0868803121562000286578081fd5b620002918662000251565b9450620002a16020870162000251565b9350620002b16040870162000251565b9250620002c16060870162000251565b9150620002d16080870162000251565b90509295509295909350565b600281046001821680620002f257607f821691505b602082108114156200031457634e487b7160e01b600052602260045260246000fd5b50919050565b612686806200032a6000396000f3fe6080604052600436106101e35760003560e01c8063715018a61161010257806398d5fdca11610095578063d9463a2111610064578063d9463a2114610539578063de30fbb71461054e578063e985e9c514610561578063f2fde38b14610581576101e3565b806398d5fdca146104c4578063a22cb465146104d9578063b88d4fde146104f9578063c87b56dd14610519576101e3565b8063853828b6116100d1578063853828b6146104725780638da5cb5b1461047a57806391b7f5ed1461048f57806395d89b41146104af576101e3565b8063715018a61461041357806378ef49a5146104285780637f4a557b1461043d578063809c3d9d14610452576101e3565b806323b872dd1161017a5780634f6ccce7116101495780634f6ccce71461039357806355f804b3146103b35780636352211e146103d357806370a08231146103f3576101e3565b806323b872dd146103065780632f745c591461032657806342842e0e14610346578063438b630014610366576101e3565b8063081812fc116101b6578063081812fc14610284578063095ea7b3146102b157806310969523146102d157806318160ddd146102f1576101e3565b806301ffc9a7146101e857806302329a291461021e57806306fdde031461024057806307206f5914610262575b600080fd5b3480156101f457600080fd5b50610208610203366004611d4a565b6105a1565b6040516102159190611ed0565b60405180910390f35b34801561022a57600080fd5b5061023e610239366004611d30565b6105ce565b005b34801561024c57600080fd5b50610255610629565b6040516102159190611edb565b34801561026e57600080fd5b506102776106bb565b60405161021591906124f7565b34801561029057600080fd5b506102a461029f366004611dc8565b6106c1565b6040516102159190611e3b565b3480156102bd57600080fd5b5061023e6102cc366004611d07565b610704565b3480156102dd57600080fd5b5061023e6102ec366004611d82565b61079c565b3480156102fd57600080fd5b506102776107f2565b34801561031257600080fd5b5061023e610321366004611c2a565b6107f8565b34801561033257600080fd5b50610277610341366004611d07565b610830565b34801561035257600080fd5b5061023e610361366004611c2a565b610882565b34801561037257600080fd5b50610386610381366004611bde565b61089d565b6040516102159190611e8c565b34801561039f57600080fd5b506102776103ae366004611dc8565b61095b565b3480156103bf57600080fd5b5061023e6103ce366004611d82565b6109b6565b3480156103df57600080fd5b506102a46103ee366004611dc8565b610a08565b3480156103ff57600080fd5b5061027761040e366004611bde565b610a3d565b34801561041f57600080fd5b5061023e610a81565b34801561043457600080fd5b50610255610acc565b34801561044957600080fd5b50610208610b5a565b34801561045e57600080fd5b5061023e61046d366004611d07565b610b63565b61023e610c1d565b34801561048657600080fd5b506102a4610e15565b34801561049b57600080fd5b5061023e6104aa366004611dc8565b610e24565b3480156104bb57600080fd5b50610255610e68565b3480156104d057600080fd5b50610277610e77565b3480156104e557600080fd5b5061023e6104f4366004611cde565b610e7d565b34801561050557600080fd5b5061023e610514366004611c65565b610f4b565b34801561052557600080fd5b50610255610534366004611dc8565b610f8a565b34801561054557600080fd5b5061027761100d565b61023e61055c366004611dc8565b611012565b34801561056d57600080fd5b5061020861057c366004611bf8565b6110f2565b34801561058d57600080fd5b5061023e61059c366004611bde565b611120565b60006001600160e01b0319821663780e9d6360e01b14806105c657506105c682611191565b90505b919050565b6105d66111d1565b6001600160a01b03166105e7610e15565b6001600160a01b0316146106165760405162461bcd60e51b815260040161060d9061229c565b60405180910390fd5b600f805460ff1916911515919091179055565b6060600080546106389061258e565b80601f01602080910402602001604051908101604052809291908181526020018280546106649061258e565b80156106b15780601f10610686576101008083540402835291602001916106b1565b820191906000526020600020905b81548152906001019060200180831161069457829003601f168201915b5050505050905090565b61270f81565b60006106cc826111d5565b6106e85760405162461bcd60e51b815260040161060d90612250565b506000908152600460205260409020546001600160a01b031690565b600061070f82610a08565b9050806001600160a01b0316836001600160a01b031614156107435760405162461bcd60e51b815260040161060d90612369565b806001600160a01b03166107556111d1565b6001600160a01b0316148061077157506107718161057c6111d1565b61078d5760405162461bcd60e51b815260040161060d9061212b565b61079783836111f2565b505050565b6107a46111d1565b6001600160a01b03166107b5610e15565b6001600160a01b0316146107db5760405162461bcd60e51b815260040161060d9061229c565b80516107ee90600b906020840190611aae565b5050565b60085490565b6108096108036111d1565b82611260565b6108255760405162461bcd60e51b815260040161060d90612423565b6107978383836112e5565b600061083b83610a3d565b82106108595760405162461bcd60e51b815260040161060d90611f13565b506001600160a01b03919091166000908152600660209081526040808320938352929052205490565b61079783838360405180602001604052806000815250610f4b565b606060006108aa83610a3d565b905060008167ffffffffffffffff8111156108d557634e487b7160e01b600052604160045260246000fd5b6040519080825280602002602001820160405280156108fe578160200160208202803683370190505b50905060005b82811015610953576109168582610830565b82828151811061093657634e487b7160e01b600052603260045260246000fd5b60209081029190910101528061094b816125c9565b915050610904565b509392505050565b60006109656107f2565b82106109835760405162461bcd60e51b815260040161060d90612474565b600882815481106109a457634e487b7160e01b600052603260045260246000fd5b90600052602060002001549050919050565b6109be6111d1565b6001600160a01b03166109cf610e15565b6001600160a01b0316146109f55760405162461bcd60e51b815260040161060d9061229c565b80516107ee90600c906020840190611aae565b6000818152600260205260408120546001600160a01b0316806105c65760405162461bcd60e51b815260040161060d906121d2565b60006001600160a01b038216610a655760405162461bcd60e51b815260040161060d90612188565b506001600160a01b031660009081526003602052604090205490565b610a896111d1565b6001600160a01b0316610a9a610e15565b6001600160a01b031614610ac05760405162461bcd60e51b815260040161060d9061229c565b610aca6000611412565b565b600b8054610ad99061258e565b80601f0160208091040260200160405190810160405280929190818152602001828054610b059061258e565b8015610b525780601f10610b2757610100808354040283529160200191610b52565b820191906000526020600020905b815481529060010190602001808311610b3557829003601f168201915b505050505081565b600f5460ff1681565b610b6b6111d1565b6001600160a01b0316610b7c610e15565b6001600160a01b031614610ba25760405162461bcd60e51b815260040161060d9061229c565b600d54811115610bc45760405162461bcd60e51b815260040161060d906124c0565b6000610bce6107f2565b905060005b82811015610c0057610bee84610be98385612500565b611464565b80610bf8816125c9565b915050610bd3565b5081600d6000828254610c13919061254b565b9091555050505050565b610c256111d1565b6001600160a01b0316610c36610e15565b6001600160a01b031614610c5c5760405162461bcd60e51b815260040161060d9061229c565b60006064610c6b47600861252c565b610c759190612518565b905060006064610c8647600661252c565b610c909190612518565b905060006064610ca147601261252c565b610cab9190612518565b905060006064610cbc47601261252c565b610cc69190612518565b905060006064610cd747603261252c565b610ce19190612518565b600f5460405191925061010090046001600160a01b0316906108fc8715029087906000818181858888f19350505050158015610d21573d6000803e3d6000fd5b506010546040516001600160a01b039091169085156108fc029086906000818181858888f19350505050158015610d5c573d6000803e3d6000fd5b506011546040516001600160a01b039091169084156108fc029085906000818181858888f19350505050158015610d97573d6000803e3d6000fd5b506012546040516001600160a01b039091169083156108fc029084906000818181858888f19350505050158015610dd2573d6000803e3d6000fd5b506013546040516001600160a01b039091169082156108fc029083906000818181858888f19350505050158015610e0d573d6000803e3d6000fd5b505050505050565b600a546001600160a01b031690565b610e2c6111d1565b6001600160a01b0316610e3d610e15565b6001600160a01b031614610e635760405162461bcd60e51b815260040161060d9061229c565b600e55565b6060600180546106389061258e565b600e5490565b610e856111d1565b6001600160a01b0316826001600160a01b03161415610eb65760405162461bcd60e51b815260040161060d90612071565b8060056000610ec36111d1565b6001600160a01b03908116825260208083019390935260409182016000908120918716808252919093529120805460ff191692151592909217909155610f076111d1565b6001600160a01b03167f17307eab39ab6107e8899845ad3d59bd9653f200f220920489ca2b5937696c3183604051610f3f9190611ed0565b60405180910390a35050565b610f5c610f566111d1565b83611260565b610f785760405162461bcd60e51b815260040161060d90612423565b610f848484848461147e565b50505050565b6060610f95826111d5565b610fb15760405162461bcd60e51b815260040161060d9061231a565b6000610fbb6114b1565b90506000815111610fdb5760405180602001604052806000815250611006565b80610fe5846114c0565b604051602001610ff6929190611e0c565b6040516020818303038152906040525b9392505050565b601481565b600061101c6107f2565b600f5490915060ff16156110425760405162461bcd60e51b815260040161060d90611eee565b60148211156110635760405162461bcd60e51b815260040161060d906123e1565b600d546110729061270f61254b565b61107c8383612500565b111561109a5760405162461bcd60e51b815260040161060d906120a8565b81600e546110a8919061252c565b3410156110c75760405162461bcd60e51b815260040161060d906123aa565b60005b82811015610797576110e033610be98385612500565b806110ea816125c9565b9150506110ca565b6001600160a01b03918216600090815260056020908152604080832093909416825291909152205460ff1690565b6111286111d1565b6001600160a01b0316611139610e15565b6001600160a01b03161461115f5760405162461bcd60e51b815260040161060d9061229c565b6001600160a01b0381166111855760405162461bcd60e51b815260040161060d90611fb0565b61118e81611412565b50565b60006001600160e01b031982166380ac58cd60e01b14806111c257506001600160e01b03198216635b5e139f60e01b145b806105c657506105c6826115db565b3390565b6000908152600260205260409020546001600160a01b0316151590565b600081815260046020526040902080546001600160a01b0319166001600160a01b038416908117909155819061122782610a08565b6001600160a01b03167f8c5be1e5ebec7d5bd14f71427d1e84f3dd0314c0f7b2291e5b200ac8c7c3b92560405160405180910390a45050565b600061126b826111d5565b6112875760405162461bcd60e51b815260040161060d906120df565b600061129283610a08565b9050806001600160a01b0316846001600160a01b031614806112cd5750836001600160a01b03166112c2846106c1565b6001600160a01b0316145b806112dd57506112dd81856110f2565b949350505050565b826001600160a01b03166112f882610a08565b6001600160a01b03161461131e5760405162461bcd60e51b815260040161060d906122d1565b6001600160a01b0382166113445760405162461bcd60e51b815260040161060d9061202d565b61134f8383836115f4565b61135a6000826111f2565b6001600160a01b038316600090815260036020526040812080546001929061138390849061254b565b90915550506001600160a01b03821660009081526003602052604081208054600192906113b1908490612500565b909155505060008181526002602052604080822080546001600160a01b0319166001600160a01b0386811691821790925591518493918716917fddf252ad1be2c89b69c2b068fc378daa952ba7f163c4a11628f55a4df523b3ef91a4505050565b600a80546001600160a01b038381166001600160a01b0319831681179093556040519116919082907f8be0079c531659141344cd1fd0a4f28419497f9722a3daafe3b4186f6b6457e090600090a35050565b6107ee82826040518060200160405280600081525061167d565b6114898484846112e5565b611495848484846116b0565b610f845760405162461bcd60e51b815260040161060d90611f5e565b6060600c80546106389061258e565b6060816114e557506040805180820190915260018152600360fc1b60208201526105c9565b8160005b811561150f57806114f9816125c9565b91506115089050600a83612518565b91506114e9565b60008167ffffffffffffffff81111561153857634e487b7160e01b600052604160045260246000fd5b6040519080825280601f01601f191660200182016040528015611562576020820181803683370190505b5090505b84156112dd5761157760018361254b565b9150611584600a866125e4565b61158f906030612500565b60f81b8183815181106115b257634e487b7160e01b600052603260045260246000fd5b60200101906001600160f81b031916908160001a9053506115d4600a86612518565b9450611566565b6001600160e01b031981166301ffc9a760e01b14919050565b6115ff838383610797565b6001600160a01b03831661161b57611616816117cb565b61163e565b816001600160a01b0316836001600160a01b03161461163e5761163e838261180f565b6001600160a01b03821661165a57611655816118ac565b610797565b826001600160a01b0316826001600160a01b031614610797576107978282611985565b61168783836119c9565b61169460008484846116b0565b6107975760405162461bcd60e51b815260040161060d90611f5e565b60006116c4846001600160a01b0316611aa8565b156117c057836001600160a01b031663150b7a026116e06111d1565b8786866040518563ffffffff1660e01b81526004016117029493929190611e4f565b602060405180830381600087803b15801561171c57600080fd5b505af192505050801561174c575060408051601f3d908101601f1916820190925261174991810190611d66565b60015b6117a6573d80801561177a576040519150601f19603f3d011682016040523d82523d6000602084013e61177f565b606091505b50805161179e5760405162461bcd60e51b815260040161060d90611f5e565b805181602001fd5b6001600160e01b031916630a85bd0160e11b1490506112dd565b506001949350505050565b600880546000838152600960205260408120829055600182018355919091527ff3f7a9fe364faab93b216da50a3214154f22a0a2b415b23a84c8169e8b636ee30155565b6000600161181c84610a3d565b611826919061254b565b600083815260076020526040902054909150808214611879576001600160a01b03841660009081526006602090815260408083208584528252808320548484528184208190558352600790915290208190555b5060009182526007602090815260408084208490556001600160a01b039094168352600681528383209183525290812055565b6008546000906118be9060019061254b565b600083815260096020526040812054600880549394509092849081106118f457634e487b7160e01b600052603260045260246000fd5b90600052602060002001549050806008838154811061192357634e487b7160e01b600052603260045260246000fd5b600091825260208083209091019290925582815260099091526040808220849055858252812055600880548061196957634e487b7160e01b600052603160045260246000fd5b6001900381819060005260206000200160009055905550505050565b600061199083610a3d565b6001600160a01b039093166000908152600660209081526040808320868452825280832085905593825260079052919091209190915550565b6001600160a01b0382166119ef5760405162461bcd60e51b815260040161060d9061221b565b6119f8816111d5565b15611a155760405162461bcd60e51b815260040161060d90611ff6565b611a21600083836115f4565b6001600160a01b0382166000908152600360205260408120805460019290611a4a908490612500565b909155505060008181526002602052604080822080546001600160a01b0319166001600160a01b03861690811790915590518392907fddf252ad1be2c89b69c2b068fc378daa952ba7f163c4a11628f55a4df523b3ef908290a45050565b3b151590565b828054611aba9061258e565b90600052602060002090601f016020900481019282611adc5760008555611b22565b82601f10611af557805160ff1916838001178555611b22565b82800160010185558215611b22579182015b82811115611b22578251825591602001919060010190611b07565b50611b2e929150611b32565b5090565b5b80821115611b2e5760008155600101611b33565b600067ffffffffffffffff80841115611b6257611b62612624565b604051601f8501601f191681016020018281118282101715611b8657611b86612624565b604052848152915081838501861015611b9e57600080fd5b8484602083013760006020868301015250509392505050565b80356001600160a01b03811681146105c957600080fd5b803580151581146105c957600080fd5b600060208284031215611bef578081fd5b61100682611bb7565b60008060408385031215611c0a578081fd5b611c1383611bb7565b9150611c2160208401611bb7565b90509250929050565b600080600060608486031215611c3e578081fd5b611c4784611bb7565b9250611c5560208501611bb7565b9150604084013590509250925092565b60008060008060808587031215611c7a578081fd5b611c8385611bb7565b9350611c9160208601611bb7565b925060408501359150606085013567ffffffffffffffff811115611cb3578182fd5b8501601f81018713611cc3578182fd5b611cd287823560208401611b47565b91505092959194509250565b60008060408385031215611cf0578182fd5b611cf983611bb7565b9150611c2160208401611bce565b60008060408385031215611d19578182fd5b611d2283611bb7565b946020939093013593505050565b600060208284031215611d41578081fd5b61100682611bce565b600060208284031215611d5b578081fd5b81356110068161263a565b600060208284031215611d77578081fd5b81516110068161263a565b600060208284031215611d93578081fd5b813567ffffffffffffffff811115611da9578182fd5b8201601f81018413611db9578182fd5b6112dd84823560208401611b47565b600060208284031215611dd9578081fd5b5035919050565b60008151808452611df8816020860160208601612562565b601f01601f19169290920160200192915050565b60008351611e1e818460208801612562565b835190830190611e32818360208801612562565b01949350505050565b6001600160a01b0391909116815260200190565b6001600160a01b0385811682528416602082015260408101839052608060608201819052600090611e8290830184611de0565b9695505050505050565b6020808252825182820181905260009190848201906040850190845b81811015611ec457835183529284019291840191600101611ea8565b50909695505050505050565b901515815260200190565b6000602082526110066020830184611de0565b6020808252600b908201526a14d85b19481c185d5cd95960aa1b604082015260600190565b6020808252602b908201527f455243373231456e756d657261626c653a206f776e657220696e646578206f7560408201526a74206f6620626f756e647360a81b606082015260800190565b60208082526032908201527f4552433732313a207472616e7366657220746f206e6f6e20455243373231526560408201527131b2b4bb32b91034b6b83632b6b2b73a32b960711b606082015260800190565b60208082526026908201527f4f776e61626c653a206e6577206f776e657220697320746865207a65726f206160408201526564647265737360d01b606082015260800190565b6020808252601c908201527f4552433732313a20746f6b656e20616c7265616479206d696e74656400000000604082015260600190565b60208082526024908201527f4552433732313a207472616e7366657220746f20746865207a65726f206164646040820152637265737360e01b606082015260800190565b60208082526019908201527f4552433732313a20617070726f766520746f2063616c6c657200000000000000604082015260600190565b6020808252601b908201527f45786365656473206d6178696d756d207878787820737570706c790000000000604082015260600190565b6020808252602c908201527f4552433732313a206f70657261746f7220717565727920666f72206e6f6e657860408201526b34b9ba32b73a103a37b5b2b760a11b606082015260800190565b60208082526038908201527f4552433732313a20617070726f76652063616c6c6572206973206e6f74206f7760408201527f6e6572206e6f7220617070726f76656420666f7220616c6c0000000000000000606082015260800190565b6020808252602a908201527f4552433732313a2062616c616e636520717565727920666f7220746865207a65604082015269726f206164647265737360b01b606082015260800190565b60208082526029908201527f4552433732313a206f776e657220717565727920666f72206e6f6e657869737460408201526832b73a103a37b5b2b760b91b606082015260800190565b6020808252818101527f4552433732313a206d696e7420746f20746865207a65726f2061646472657373604082015260600190565b6020808252602c908201527f4552433732313a20617070726f76656420717565727920666f72206e6f6e657860408201526b34b9ba32b73a103a37b5b2b760a11b606082015260800190565b6020808252818101527f4f776e61626c653a2063616c6c6572206973206e6f7420746865206f776e6572604082015260600190565b60208082526029908201527f4552433732313a207472616e73666572206f6620746f6b656e2074686174206960408201526839903737ba1037bbb760b91b606082015260800190565b6020808252602f908201527f4552433732314d657461646174613a2055524920717565727920666f72206e6f60408201526e3732bc34b9ba32b73a103a37b5b2b760891b606082015260800190565b60208082526021908201527f4552433732313a20617070726f76616c20746f2063757272656e74206f776e656040820152603960f91b606082015260800190565b60208082526019908201527f45746865722073656e74206973206e6f7420636f727265637400000000000000604082015260600190565b60208082526022908201527f596f752063616e2061646f70742061206d6178696d756d206f662032302078786040820152610f0f60f31b606082015260800190565b60208082526031908201527f4552433732313a207472616e736665722063616c6c6572206973206e6f74206f6040820152701ddb995c881b9bdc88185c1c1c9bdd9959607a1b606082015260800190565b6020808252602c908201527f455243373231456e756d657261626c653a20676c6f62616c20696e646578206f60408201526b7574206f6620626f756e647360a01b606082015260800190565b6020808252601c908201527f45786365656473207265736572766564207878787820737570706c7900000000604082015260600190565b90815260200190565b60008219821115612513576125136125f8565b500190565b6000826125275761252761260e565b500490565b6000816000190483118215151615612546576125466125f8565b500290565b60008282101561255d5761255d6125f8565b500390565b60005b8381101561257d578181015183820152602001612565565b83811115610f845750506000910152565b6002810460018216806125a257607f821691505b602082108114156125c357634e487b7160e01b600052602260045260246000fd5b50919050565b60006000198214156125dd576125dd6125f8565b5060010190565b6000826125f3576125f361260e565b500690565b634e487b7160e01b600052601160045260246000fd5b634e487b7160e01b600052601260045260246000fd5b634e487b7160e01b600052604160045260246000fd5b6001600160e01b03198116811461118e57600080fdfea2646970667358221220a68818c39b57c23c24dd1e04a6344cb02755c4ce180ebc957dc3ea82357e28b864736f6c63430008000033",
  "devdoc": {
    "kind": "dev",
    "methods": {
      "approve(address,uint256)": {
        "details": "See {IERC721-approve}."
      },
      "balanceOf(address)": {
        "details": "See {IERC721-balanceOf}."
      },
      "getApproved(uint256)": {
        "details": "See {IERC721-getApproved}."
      },
      "isApprovedForAll(address,address)": {
        "details": "See {IERC721-isApprovedForAll}."
      },
      "name()": {
        "details": "See {IERC721Metadata-name}."
      },
      "owner()": {
        "details": "Returns the address of the current owner."
      },
      "ownerOf(uint256)": {
        "details": "See {IERC721-ownerOf}."
      },
      "renounceOwnership()": {
        "details": "Leaves the contract without owner. It will not be possible to call `onlyOwner` functions anymore. Can only be called by the current owner. NOTE: Renouncing ownership will leave the contract without an owner, thereby removing any functionality that is only available to the owner."
      },
      "safeTransferFrom(address,address,uint256)": {
        "details": "See {IERC721-safeTransferFrom}."
      },
      "safeTransferFrom(address,address,uint256,bytes)": {
        "details": "See {IERC721-safeTransferFrom}."
      },
      "setApprovalForAll(address,bool)": {
        "details": "See {IERC721-setApprovalForAll}."
      },
      "supportsInterface(bytes4)": {
        "details": "See {IERC165-supportsInterface}."
      },
      "symbol()": {
        "details": "See {IERC721Metadata-symbol}."
      },
      "tokenByIndex(uint256)": {
        "details": "See {IERC721Enumerable-tokenByIndex}."
      },
      "tokenOfOwnerByIndex(address,uint256)": {
        "details": "See {IERC721Enumerable-tokenOfOwnerByIndex}."
      },
      "tokenURI(uint256)": {
        "details": "See {IERC721Metadata-tokenURI}."
      },
      "totalSupply()": {
        "details": "See {IERC721Enumerable-totalSupply}."
      },
      "transferFrom(address,address,uint256)": {
        "details": "See {IERC721-transferFrom}."
      },
      "transferOwnership(address)": {
        "details": "Transfers ownership of the contract to a new account (`newOwner`). Can only be called by the current owner."
      }
    },
    "version": 1
  },
  "userdoc": {
    "kind": "user",
    "methods": {},
    "version": 1
  },
  "storageLayout": {
    "storage": [
      {
        "astId": 129,
        "contract": "contracts/ForRinkeby.sol:ForRinkeby",
        "label": "_name",
        "offset": 0,
        "slot": "0",
        "type": "t_string_storage"
      },
      {
        "astId": 131,
        "contract": "contracts/ForRinkeby.sol:ForRinkeby",
        "label": "_symbol",
        "offset": 0,
        "slot": "1",
        "type": "t_string_storage"
      },
      {
        "astId": 135,
        "contract": "contracts/ForRinkeby.sol:ForRinkeby",
        "label": "_owners",
        "offset": 0,
        "slot": "2",
        "type": "t_mapping(t_uint256,t_address)"
      },
      {
        "astId": 139,
        "contract": "contracts/ForRinkeby.sol:ForRinkeby",
        "label": "_balances",
        "offset": 0,
        "slot": "3",
        "type": "t_mapping(t_address,t_uint256)"
      },
      {
        "astId": 143,
        "contract": "contracts/ForRinkeby.sol:ForRinkeby",
        "label": "_tokenApprovals",
        "offset": 0,
        "slot": "4",
        "type": "t_mapping(t_uint256,t_address)"
      },
      {
        "astId": 149,
        "contract": "contracts/ForRinkeby.sol:ForRinkeby",
        "label": "_operatorApprovals",
        "offset": 0,
        "slot": "5",
        "type": "t_mapping(t_address,t_mapping(t_address,t_bool))"
      },
      {
        "astId": 1070,
        "contract": "contracts/ForRinkeby.sol:ForRinkeby",
        "label": "_ownedTokens",
        "offset": 0,
        "slot": "6",
        "type": "t_mapping(t_address,t_mapping(t_uint256,t_uint256))"
      },
      {
        "astId": 1074,
        "contract": "contracts/ForRinkeby.sol:ForRinkeby",
        "label": "_ownedTokensIndex",
        "offset": 0,
        "slot": "7",
        "type": "t_mapping(t_uint256,t_uint256)"
      },
      {
        "astId": 1077,
        "contract": "contracts/ForRinkeby.sol:ForRinkeby",
        "label": "_allTokens",
        "offset": 0,
        "slot": "8",
        "type": "t_array(t_uint256)dyn_storage"
      },
      {
        "astId": 1081,
        "contract": "contracts/ForRinkeby.sol:ForRinkeby",
        "label": "_allTokensIndex",
        "offset": 0,
        "slot": "9",
        "type": "t_mapping(t_uint256,t_uint256)"
      },
      {
        "astId": 7,
        "contract": "contracts/ForRinkeby.sol:ForRinkeby",
        "label": "_owner",
        "offset": 0,
        "slot": "10",
        "type": "t_address"
      },
      {
        "astId": 2422,
        "contract": "contracts/ForRinkeby.sol:ForRinkeby",
        "label": "XXXX_PROVENANCE",
        "offset": 0,
        "slot": "11",
        "type": "t_string_storage"
      },
      {
        "astId": 2424,
        "contract": "contracts/ForRinkeby.sol:ForRinkeby",
        "label": "_baseTokenURI",
        "offset": 0,
        "slot": "12",
        "type": "t_string_storage"
      },
      {
        "astId": 2430,
        "contract": "contracts/ForRinkeby.sol:ForRinkeby",
        "label": "xxxxReserved",
        "offset": 0,
        "slot": "13",
        "type": "t_uint256"
      },
      {
        "astId": 2436,
        "contract": "contracts/ForRinkeby.sol:ForRinkeby",
        "label": "xxxxPrice",
        "offset": 0,
        "slot": "14",
        "type": "t_uint256"
      },
      {
        "astId": 2439,
        "contract": "contracts/ForRinkeby.sol:ForRinkeby",
        "label": "xxxxPaused",
        "offset": 0,
        "slot": "15",
        "type": "t_bool"
      },
      {
        "astId": 2441,
        "contract": "contracts/ForRinkeby.sol:ForRinkeby",
        "label": "t1",
        "offset": 1,
        "slot": "15",
        "type": "t_address"
      },
      {
        "astId": 2443,
        "contract": "contracts/ForRinkeby.sol:ForRinkeby",
        "label": "t2",
        "offset": 0,
        "slot": "16",
        "type": "t_address"
      },
      {
        "astId": 2445,
        "contract": "contracts/ForRinkeby.sol:ForRinkeby",
        "label": "t3",
        "offset": 0,
        "slot": "17",
        "type": "t_address"
      },
      {
        "astId": 2447,
        "contract": "contracts/ForRinkeby.sol:ForRinkeby",
        "label": "t4",
        "offset": 0,
        "slot": "18",
        "type": "t_address"
      },
      {
        "astId": 2449,
        "contract": "contracts/ForRinkeby.sol:ForRinkeby",
        "label": "t5",
        "offset": 0,
        "slot": "19",
        "type": "t_address"
      }
    ],
    "types": {
      "t_address": {
        "encoding": "inplace",
        "label": "address",
        "numberOfBytes": "20"
      },
      "t_array(t_uint256)dyn_storage": {
        "base": "t_uint256",
        "encoding": "dynamic_array",
        "label": "uint256[]",
        "numberOfBytes": "32"
      },
      "t_bool": {
        "encoding": "inplace",
        "label": "bool",
        "numberOfBytes": "1"
      },
      "t_mapping(t_address,t_bool)": {
        "encoding": "mapping",
        "key": "t_address",
        "label": "mapping(address => bool)",
        "numberOfBytes": "32",
        "value": "t_bool"
      },
      "t_mapping(t_address,t_mapping(t_address,t_bool))": {
        "encoding": "mapping",
        "key": "t_address",
        "label": "mapping(address => mapping(address => bool))",
        "numberOfBytes": "32",
        "value": "t_mapping(t_address,t_bool)"
      },
      "t_mapping(t_address,t_mapping(t_uint256,t_uint256))": {
        "encoding": "mapping",
        "key": "t_address",
        "label": "mapping(address => mapping(uint256 => uint256))",
        "numberOfBytes": "32",
        "value": "t_mapping(t_uint256,t_uint256)"
      },
      "t_mapping(t_address,t_uint256)": {
        "encoding": "mapping",
        "key": "t_address",
        "label": "mapping(address => uint256)",
        "numberOfBytes": "32",
        "value": "t_uint256"
      },
      "t_mapping(t_uint256,t_address)": {
        "encoding": "mapping",
        "key": "t_uint256",
        "label": "mapping(uint256 => address)",
        "numberOfBytes": "32",
        "value": "t_address"
      },
      "t_mapping(t_uint256,t_uint256)": {
        "encoding": "mapping",
        "key": "t_uint256",
        "label": "mapping(uint256 => uint256)",
        "numberOfBytes": "32",
        "value": "t_uint256"
      },
      "t_string_storage": {
        "encoding": "bytes",
        "label": "string",
        "numberOfBytes": "32"
      },
      "t_uint256": {
        "encoding": "inplace",
        "label": "uint256",
        "numberOfBytes": "32"
      }
    }
  }
}