{
  "address": "0x6e3Ef4d5102a34e6D3d35375Fa37480d605ebDaf",
  "abi": [
    {
      "inputs": [
        {
          "internalType": "address",
          "name": "LostSoulsContract",
          "type": "address"
        }
      ],
      "stateMutability": "nonpayable",
      "type": "constructor"
    },
    {
      "anonymous": false,
      "inputs": [
        {
          "indexed": true,
          "internalType": "address",
          "name": "owner",
          "type": "address"
        },
        {
          "indexed": true,
          "internalType": "address",
          "name": "approved",
          "type": "address"
        },
        {
          "indexed": true,
          "internalType": "uint256",
          "name": "tokenId",
          "type": "uint256"
        }
      ],
      "name": "Approval",
      "type": "event"
    },
    {
      "anonymous": false,
      "inputs": [
        {
          "indexed": true,
          "internalType": "address",
          "name": "owner",
          "type": "address"
        },
        {
          "indexed": true,
          "internalType": "address",
          "name": "operator",
          "type": "address"
        },
        {
          "indexed": false,
          "internalType": "bool",
          "name": "approved",
          "type": "bool"
        }
      ],
      "name": "ApprovalForAll",
      "type": "event"
    },
    {
      "anonymous": false,
      "inputs": [
        {
          "indexed": true,
          "internalType": "address",
          "name": "previousOwner",
          "type": "address"
        },
        {
          "indexed": true,
          "internalType": "address",
          "name": "newOwner",
          "type": "address"
        }
      ],
      "name": "OwnershipTransferred",
      "type": "event"
    },
    {
      "anonymous": false,
      "inputs": [
        {
          "indexed": true,
          "internalType": "address",
          "name": "from",
          "type": "address"
        },
        {
          "indexed": true,
          "internalType": "address",
          "name": "to",
          "type": "address"
        },
        {
          "indexed": true,
          "internalType": "uint256",
          "name": "tokenId",
          "type": "uint256"
        }
      ],
      "name": "Transfer",
      "type": "event"
    },
    {
      "inputs": [],
      "name": "MAX_SOULPASS",
      "outputs": [
        {
          "internalType": "uint256",
          "name": "",
          "type": "uint256"
        }
      ],
      "stateMutability": "view",
      "type": "function"
    },
    {
      "inputs": [],
      "name": "SOUL_PROVENANCE",
      "outputs": [
        {
          "internalType": "string",
          "name": "",
          "type": "string"
        }
      ],
      "stateMutability": "view",
      "type": "function"
    },
    {
      "inputs": [
        {
          "internalType": "address",
          "name": "to",
          "type": "address"
        },
        {
          "internalType": "uint256",
          "name": "tokenId",
          "type": "uint256"
        }
      ],
      "name": "approve",
      "outputs": [],
      "stateMutability": "nonpayable",
      "type": "function"
    },
    {
      "inputs": [
        {
          "internalType": "address",
          "name": "owner",
          "type": "address"
        }
      ],
      "name": "balanceOf",
      "outputs": [
        {
          "internalType": "uint256",
          "name": "",
          "type": "uint256"
        }
      ],
      "stateMutability": "view",
      "type": "function"
    },
    {
      "inputs": [
        {
          "internalType": "uint256[]",
          "name": "soulArray",
          "type": "uint256[]"
        }
      ],
      "name": "claimAllSoulPass",
      "outputs": [],
      "stateMutability": "nonpayable",
      "type": "function"
    },
    {
      "inputs": [
        {
          "internalType": "uint256",
          "name": "soulOne",
          "type": "uint256"
        },
        {
          "internalType": "uint256",
          "name": "soulTwo",
          "type": "uint256"
        }
      ],
      "name": "claimSoulPass",
      "outputs": [],
      "stateMutability": "nonpayable",
      "type": "function"
    },
    {
      "inputs": [
        {
          "internalType": "uint256",
          "name": "tokenId",
          "type": "uint256"
        }
      ],
      "name": "getApproved",
      "outputs": [
        {
          "internalType": "address",
          "name": "",
          "type": "address"
        }
      ],
      "stateMutability": "view",
      "type": "function"
    },
    {
      "inputs": [
        {
          "internalType": "address",
          "name": "owner",
          "type": "address"
        },
        {
          "internalType": "address",
          "name": "operator",
          "type": "address"
        }
      ],
      "name": "isApprovedForAll",
      "outputs": [
        {
          "internalType": "bool",
          "name": "",
          "type": "bool"
        }
      ],
      "stateMutability": "view",
      "type": "function"
    },
    {
      "inputs": [],
      "name": "mintPaused",
      "outputs": [
        {
          "internalType": "bool",
          "name": "",
          "type": "bool"
        }
      ],
      "stateMutability": "view",
      "type": "function"
    },
    {
      "inputs": [],
      "name": "name",
      "outputs": [
        {
          "internalType": "string",
          "name": "",
          "type": "string"
        }
      ],
      "stateMutability": "view",
      "type": "function"
    },
    {
      "inputs": [],
      "name": "owner",
      "outputs": [
        {
          "internalType": "address",
          "name": "",
          "type": "address"
        }
      ],
      "stateMutability": "view",
      "type": "function"
    },
    {
      "inputs": [
        {
          "internalType": "uint256",
          "name": "tokenId",
          "type": "uint256"
        }
      ],
      "name": "ownerOf",
      "outputs": [
        {
          "internalType": "address",
          "name": "",
          "type": "address"
        }
      ],
      "stateMutability": "view",
      "type": "function"
    },
    {
      "inputs": [
        {
          "internalType": "bool",
          "name": "val",
          "type": "bool"
        }
      ],
      "name": "pause",
      "outputs": [],
      "stateMutability": "nonpayable",
      "type": "function"
    },
    {
      "inputs": [],
      "name": "renounceOwnership",
      "outputs": [],
      "stateMutability": "nonpayable",
      "type": "function"
    },
    {
      "inputs": [
        {
          "internalType": "address",
          "name": "from",
          "type": "address"
        },
        {
          "internalType": "address",
          "name": "to",
          "type": "address"
        },
        {
          "internalType": "uint256",
          "name": "tokenId",
          "type": "uint256"
        }
      ],
      "name": "safeTransferFrom",
      "outputs": [],
      "stateMutability": "nonpayable",
      "type": "function"
    },
    {
      "inputs": [
        {
          "internalType": "address",
          "name": "from",
          "type": "address"
        },
        {
          "internalType": "address",
          "name": "to",
          "type": "address"
        },
        {
          "internalType": "uint256",
          "name": "tokenId",
          "type": "uint256"
        },
        {
          "internalType": "bytes",
          "name": "_data",
          "type": "bytes"
        }
      ],
      "name": "safeTransferFrom",
      "outputs": [],
      "stateMutability": "nonpayable",
      "type": "function"
    },
    {
      "inputs": [
        {
          "internalType": "address",
          "name": "operator",
          "type": "address"
        },
        {
          "internalType": "bool",
          "name": "approved",
          "type": "bool"
        }
      ],
      "name": "setApprovalForAll",
      "outputs": [],
      "stateMutability": "nonpayable",
      "type": "function"
    },
    {
      "inputs": [
        {
          "internalType": "string",
          "name": "baseURI",
          "type": "string"
        }
      ],
      "name": "setBaseURI",
      "outputs": [],
      "stateMutability": "nonpayable",
      "type": "function"
    },
    {
      "inputs": [
        {
          "internalType": "string",
          "name": "provenanceHash",
          "type": "string"
        }
      ],
      "name": "setProvenanceHash",
      "outputs": [],
      "stateMutability": "nonpayable",
      "type": "function"
    },
    {
      "inputs": [
        {
          "internalType": "uint256",
          "name": "",
          "type": "uint256"
        }
      ],
      "name": "soulClaimed",
      "outputs": [
        {
          "internalType": "bool",
          "name": "",
          "type": "bool"
        }
      ],
      "stateMutability": "view",
      "type": "function"
    },
    {
      "inputs": [
        {
          "internalType": "address",
          "name": "_owner",
          "type": "address"
        }
      ],
      "name": "soulNotClaimed",
      "outputs": [
        {
          "internalType": "uint256[]",
          "name": "",
          "type": "uint256[]"
        }
      ],
      "stateMutability": "view",
      "type": "function"
    },
    {
      "inputs": [
        {
          "internalType": "bytes4",
          "name": "interfaceId",
          "type": "bytes4"
        }
      ],
      "name": "supportsInterface",
      "outputs": [
        {
          "internalType": "bool",
          "name": "",
          "type": "bool"
        }
      ],
      "stateMutability": "view",
      "type": "function"
    },
    {
      "inputs": [],
      "name": "symbol",
      "outputs": [
        {
          "internalType": "string",
          "name": "",
          "type": "string"
        }
      ],
      "stateMutability": "view",
      "type": "function"
    },
    {
      "inputs": [
        {
          "internalType": "uint256",
          "name": "index",
          "type": "uint256"
        }
      ],
      "name": "tokenByIndex",
      "outputs": [
        {
          "internalType": "uint256",
          "name": "",
          "type": "uint256"
        }
      ],
      "stateMutability": "view",
      "type": "function"
    },
    {
      "inputs": [
        {
          "internalType": "address",
          "name": "owner",
          "type": "address"
        },
        {
          "internalType": "uint256",
          "name": "index",
          "type": "uint256"
        }
      ],
      "name": "tokenOfOwnerByIndex",
      "outputs": [
        {
          "internalType": "uint256",
          "name": "",
          "type": "uint256"
        }
      ],
      "stateMutability": "view",
      "type": "function"
    },
    {
      "inputs": [
        {
          "internalType": "uint256",
          "name": "tokenId",
          "type": "uint256"
        }
      ],
      "name": "tokenURI",
      "outputs": [
        {
          "internalType": "string",
          "name": "",
          "type": "string"
        }
      ],
      "stateMutability": "view",
      "type": "function"
    },
    {
      "inputs": [],
      "name": "totalSupply",
      "outputs": [
        {
          "internalType": "uint256",
          "name": "",
          "type": "uint256"
        }
      ],
      "stateMutability": "view",
      "type": "function"
    },
    {
      "inputs": [
        {
          "internalType": "address",
          "name": "from",
          "type": "address"
        },
        {
          "internalType": "address",
          "name": "to",
          "type": "address"
        },
        {
          "internalType": "uint256",
          "name": "tokenId",
          "type": "uint256"
        }
      ],
      "name": "transferFrom",
      "outputs": [],
      "stateMutability": "nonpayable",
      "type": "function"
    },
    {
      "inputs": [
        {
          "internalType": "address",
          "name": "newOwner",
          "type": "address"
        }
      ],
      "name": "transferOwnership",
      "outputs": [],
      "stateMutability": "nonpayable",
      "type": "function"
    },
    {
      "inputs": [
        {
          "internalType": "address",
          "name": "_owner",
          "type": "address"
        }
      ],
      "name": "walletOfOwner",
      "outputs": [
        {
          "internalType": "uint256[]",
          "name": "",
          "type": "uint256[]"
        }
      ],
      "stateMutability": "view",
      "type": "function"
    }
  ],
  "transactionHash": "0x43887bbf8269dd23422fb9173c8fadec4bd7e98759d62117027b5761501f1c3f",
  "args": [
    "0x0FB69D1dC9954a7f60e83023916F2551E24F52fC"
  ],
  "solcInputHash": "c839eee6706c1c63fc0fc4cf4150c7ed",
  "bytecode": "0x60a06040819052600060808190526200001b91600b9162000152565b50600d805460ff191660011790553480156200003657600080fd5b50604051620028f1380380620028f18339810160408190526200005991620001f8565b6040805180820182526008815267536f756c5061737360c01b602080830191825283518085019094526002845261053560f41b908401528151919291620000a39160009162000152565b508051620000b990600190602084019062000152565b505050620000d6620000d0620000fc60201b60201c565b62000100565b600f80546001600160a01b0319166001600160a01b039290921691909117905562000265565b3390565b600a80546001600160a01b038381166001600160a01b0319831681179093556040519116919082907f8be0079c531659141344cd1fd0a4f28419497f9722a3daafe3b4186f6b6457e090600090a35050565b828054620001609062000228565b90600052602060002090601f016020900481019282620001845760008555620001cf565b82601f106200019f57805160ff1916838001178555620001cf565b82800160010185558215620001cf579182015b82811115620001cf578251825591602001919060010190620001b2565b50620001dd929150620001e1565b5090565b5b80821115620001dd5760008155600101620001e2565b6000602082840312156200020a578081fd5b81516001600160a01b038116811462000221578182fd5b9392505050565b6002810460018216806200023d57607f821691505b602082108114156200025f57634e487b7160e01b600052602260045260246000fd5b50919050565b61267c80620002756000396000f3fe608060405234801561001057600080fd5b50600436106101da5760003560e01c806370a0823111610104578063a22cb465116100a2578063c9c4d03e11610071578063c9c4d03e146103cc578063e985e9c5146103d4578063f2a68546146103e7578063f2fde38b146103fa576101da565b8063a22cb46514610380578063b88d4fde14610393578063b9a0a978146103a6578063c87b56dd146103b9576101da565b80637e4831d3116100de5780637e4831d3146103555780638da5cb5b1461035d57806395d89b41146103655780639687a52e1461036d576101da565b806370a0823114610327578063715018a61461033a57806375b9e95e14610342576101da565b806318160ddd1161017c578063438b63001161014b578063438b6300146102ce5780634f6ccce7146102ee57806355f804b3146103015780636352211e14610314576101da565b806318160ddd1461028d57806323b872dd146102955780632f745c59146102a857806342842e0e146102bb576101da565b8063081812fc116101b8578063081812fc14610232578063095ea7b3146102525780631096952314610265578063123ab5bd14610278576101da565b806301ffc9a7146101df57806302329a291461020857806306fdde031461021d575b600080fd5b6101f26101ed366004611c9c565b61040d565b6040516101ff9190611e43565b60405180910390f35b61021b610216366004611c82565b61043a565b005b610225610495565b6040516101ff9190611e4e565b610245610240366004611d1a565b610527565b6040516101ff9190611dae565b61021b610260366004611bb0565b61056a565b61021b610273366004611cd4565b610602565b610280610658565b6040516101ff91906124cd565b61028061065e565b61021b6102a3366004611abf565b610664565b6102806102b6366004611bb0565b61069c565b61021b6102c9366004611abf565b6106ee565b6102e16102dc366004611a4f565b610709565b6040516101ff9190611dff565b6102806102fc366004611d1a565b6107c7565b61021b61030f366004611cd4565b610822565b610245610322366004611d1a565b610874565b610280610335366004611a4f565b6108a9565b61021b6108ed565b6102e1610350366004611a4f565b610938565b6101f2610a06565b610245610a0f565b610225610a1e565b61021b61037b366004611d32565b610a2d565b61021b61038e366004611b7c565b610c61565b61021b6103a1366004611aff565b610d2f565b6101f26103b4366004611d1a565b610d6e565b6102256103c7366004611d1a565b610d83565b610225610e06565b6101f26103e2366004611a87565b610e94565b61021b6103f5366004611bdb565b610ec2565b61021b610408366004611a4f565b610fc0565b60006001600160e01b0319821663780e9d6360e01b1480610432575061043282611031565b90505b919050565b610442611071565b6001600160a01b0316610453610a0f565b6001600160a01b0316146104825760405162461bcd60e51b81526004016104799061220f565b60405180910390fd5b600d805460ff1916911515919091179055565b6060600080546104a49061256f565b80601f01602080910402602001604051908101604052809291908181526020018280546104d09061256f565b801561051d5780601f106104f25761010080835404028352916020019161051d565b820191906000526020600020905b81548152906001019060200180831161050057829003601f168201915b5050505050905090565b600061053282611075565b61054e5760405162461bcd60e51b8152600401610479906121c3565b506000908152600460205260409020546001600160a01b031690565b600061057582610874565b9050806001600160a01b0316836001600160a01b031614156105a95760405162461bcd60e51b815260040161047990612381565b806001600160a01b03166105bb611071565b6001600160a01b031614806105d757506105d7816103e2611071565b6105f35760405162461bcd60e51b815260040161047990612079565b6105fd8383611092565b505050565b61060a611071565b6001600160a01b031661061b610a0f565b6001600160a01b0316146106415760405162461bcd60e51b81526004016104799061220f565b805161065490600b90602084019061194e565b5050565b61138781565b60085490565b61067561066f611071565b82611100565b6106915760405162461bcd60e51b8152600401610479906123f9565b6105fd838383611185565b60006106a7836108a9565b82106106c55760405162461bcd60e51b815260040161047990611e61565b506001600160a01b03919091166000908152600660209081526040808320938352929052205490565b6105fd83838360405180602001604052806000815250610d2f565b60606000610716836108a9565b905060008167ffffffffffffffff81111561074157634e487b7160e01b600052604160045260246000fd5b60405190808252806020026020018201604052801561076a578160200160208202803683370190505b50905060005b828110156107bf57610782858261069c565b8282815181106107a257634e487b7160e01b600052603260045260246000fd5b6020908102919091010152806107b7816125aa565b915050610770565b509392505050565b60006107d161065e565b82106107ef5760405162461bcd60e51b81526004016104799061244a565b6008828154811061081057634e487b7160e01b600052603260045260246000fd5b90600052602060002001549050919050565b61082a611071565b6001600160a01b031661083b610a0f565b6001600160a01b0316146108615760405162461bcd60e51b81526004016104799061220f565b805161065490600c90602084019061194e565b6000818152600260205260408120546001600160a01b0316806104325760405162461bcd60e51b815260040161047990612120565b60006001600160a01b0382166108d15760405162461bcd60e51b8152600401610479906120d6565b506001600160a01b031660009081526003602052604090205490565b6108f5611071565b6001600160a01b0316610906610a0f565b6001600160a01b03161461092c5760405162461bcd60e51b81526004016104799061220f565b61093660006112b2565b565b60606000610945836108a9565b905060008167ffffffffffffffff81111561097057634e487b7160e01b600052604160045260246000fd5b604051908082528060200260200182016040528015610999578160200160208202803683370190505b50905060005b828110156107bf576000818152600e602052604090205460ff166109f4576109c7858261069c565b8282815181106109e757634e487b7160e01b600052603260045260246000fd5b6020026020010181815250505b806109fe816125aa565b91505061099f565b600d5460ff1681565b600a546001600160a01b031690565b6060600180546104a49061256f565b6000610a3761065e565b600d5490915060ff1615610a5d5760405162461bcd60e51b81526004016104799061219e565b6113878110610a7e5760405162461bcd60e51b8152600401610479906122c4565b600f546040516331a9108f60e11b815233916001600160a01b031690636352211e90610aae9087906004016124cd565b60206040518083038186803b158015610ac657600080fd5b505afa158015610ada573d6000803e3d6000fd5b505050506040513d601f19601f82011682018060405250810190610afe9190611a6b565b6001600160a01b031614610b245760405162461bcd60e51b81526004016104799061234a565b600f546040516331a9108f60e11b815233916001600160a01b031690636352211e90610b549086906004016124cd565b60206040518083038186803b158015610b6c57600080fd5b505afa158015610b80573d6000803e3d6000fd5b505050506040513d601f19601f82011682018060405250810190610ba49190611a6b565b6001600160a01b031614610bca5760405162461bcd60e51b815260040161047990612244565b6000838152600e602052604090205460ff1615610bf95760405162461bcd60e51b815260040161047990612496565b6000828152600e602052604090205460ff1615610c285760405162461bcd60e51b8152600401610479906123c2565b6000838152600e60205260408082208054600160ff19918216811790925585845291909220805490911690911790556105fd3382611304565b610c69611071565b6001600160a01b0316826001600160a01b03161415610c9a5760405162461bcd60e51b815260040161047990611ff6565b8060056000610ca7611071565b6001600160a01b03908116825260208083019390935260409182016000908120918716808252919093529120805460ff191692151592909217909155610ceb611071565b6001600160a01b03167f17307eab39ab6107e8899845ad3d59bd9653f200f220920489ca2b5937696c3183604051610d239190611e43565b60405180910390a35050565b610d40610d3a611071565b83611100565b610d5c5760405162461bcd60e51b8152600401610479906123f9565b610d688484848461131e565b50505050565b600e6020526000908152604090205460ff1681565b6060610d8e82611075565b610daa5760405162461bcd60e51b8152600401610479906122fb565b6000610db4611351565b90506000815111610dd45760405180602001604052806000815250610dff565b80610dde84611360565b604051602001610def929190611d7f565b6040516020818303038152906040525b9392505050565b600b8054610e139061256f565b80601f0160208091040260200160405190810160405280929190818152602001828054610e3f9061256f565b8015610e8c5780601f10610e6157610100808354040283529160200191610e8c565b820191906000526020600020905b815481529060010190602001808311610e6f57829003601f168201915b505050505081565b6001600160a01b03918216600090815260056020908152604080832093909416825291909152205460ff1690565b6000610ecc61065e565b600d5490915060ff1615610ef25760405162461bcd60e51b81526004016104799061219e565b6113878110610f135760405162461bcd60e51b8152600401610479906122c4565b60028251610f2191906125c5565b15610f3e5760405162461bcd60e51b815260040161047990611f7b565b60005b82518110156105fd57610fae838281518110610f6d57634e487b7160e01b600052603260045260246000fd5b602002602001015184836001610f839190612500565b81518110610fa157634e487b7160e01b600052603260045260246000fd5b6020026020010151610a2d565b610fb9600282612500565b9050610f41565b610fc8611071565b6001600160a01b0316610fd9610a0f565b6001600160a01b031614610fff5760405162461bcd60e51b81526004016104799061220f565b6001600160a01b0381166110255760405162461bcd60e51b815260040161047990611efe565b61102e816112b2565b50565b60006001600160e01b031982166380ac58cd60e01b148061106257506001600160e01b03198216635b5e139f60e01b145b8061043257506104328261147b565b3390565b6000908152600260205260409020546001600160a01b0316151590565b600081815260046020526040902080546001600160a01b0319166001600160a01b03841690811790915581906110c782610874565b6001600160a01b03167f8c5be1e5ebec7d5bd14f71427d1e84f3dd0314c0f7b2291e5b200ac8c7c3b92560405160405180910390a45050565b600061110b82611075565b6111275760405162461bcd60e51b81526004016104799061202d565b600061113283610874565b9050806001600160a01b0316846001600160a01b0316148061116d5750836001600160a01b031661116284610527565b6001600160a01b0316145b8061117d575061117d8185610e94565b949350505050565b826001600160a01b031661119882610874565b6001600160a01b0316146111be5760405162461bcd60e51b81526004016104799061227b565b6001600160a01b0382166111e45760405162461bcd60e51b815260040161047990611fb2565b6111ef838383611494565b6111fa600082611092565b6001600160a01b038316600090815260036020526040812080546001929061122390849061252c565b90915550506001600160a01b0382166000908152600360205260408120805460019290611251908490612500565b909155505060008181526002602052604080822080546001600160a01b0319166001600160a01b0386811691821790925591518493918716917fddf252ad1be2c89b69c2b068fc378daa952ba7f163c4a11628f55a4df523b3ef91a4505050565b600a80546001600160a01b038381166001600160a01b0319831681179093556040519116919082907f8be0079c531659141344cd1fd0a4f28419497f9722a3daafe3b4186f6b6457e090600090a35050565b61065482826040518060200160405280600081525061151d565b611329848484611185565b61133584848484611550565b610d685760405162461bcd60e51b815260040161047990611eac565b6060600c80546104a49061256f565b60608161138557506040805180820190915260018152600360fc1b6020820152610435565b8160005b81156113af5780611399816125aa565b91506113a89050600a83612518565b9150611389565b60008167ffffffffffffffff8111156113d857634e487b7160e01b600052604160045260246000fd5b6040519080825280601f01601f191660200182016040528015611402576020820181803683370190505b5090505b841561117d5761141760018361252c565b9150611424600a866125c5565b61142f906030612500565b60f81b81838151811061145257634e487b7160e01b600052603260045260246000fd5b60200101906001600160f81b031916908160001a905350611474600a86612518565b9450611406565b6001600160e01b031981166301ffc9a760e01b14919050565b61149f8383836105fd565b6001600160a01b0383166114bb576114b68161166b565b6114de565b816001600160a01b0316836001600160a01b0316146114de576114de83826116af565b6001600160a01b0382166114fa576114f58161174c565b6105fd565b826001600160a01b0316826001600160a01b0316146105fd576105fd8282611825565b6115278383611869565b6115346000848484611550565b6105fd5760405162461bcd60e51b815260040161047990611eac565b6000611564846001600160a01b0316611948565b1561166057836001600160a01b031663150b7a02611580611071565b8786866040518563ffffffff1660e01b81526004016115a29493929190611dc2565b602060405180830381600087803b1580156115bc57600080fd5b505af19250505080156115ec575060408051601f3d908101601f191682019092526115e991810190611cb8565b60015b611646573d80801561161a576040519150601f19603f3d011682016040523d82523d6000602084013e61161f565b606091505b50805161163e5760405162461bcd60e51b815260040161047990611eac565b805181602001fd5b6001600160e01b031916630a85bd0160e11b14905061117d565b506001949350505050565b600880546000838152600960205260408120829055600182018355919091527ff3f7a9fe364faab93b216da50a3214154f22a0a2b415b23a84c8169e8b636ee30155565b600060016116bc846108a9565b6116c6919061252c565b600083815260076020526040902054909150808214611719576001600160a01b03841660009081526006602090815260408083208584528252808320548484528184208190558352600790915290208190555b5060009182526007602090815260408084208490556001600160a01b039094168352600681528383209183525290812055565b60085460009061175e9060019061252c565b6000838152600960205260408120546008805493945090928490811061179457634e487b7160e01b600052603260045260246000fd5b9060005260206000200154905080600883815481106117c357634e487b7160e01b600052603260045260246000fd5b600091825260208083209091019290925582815260099091526040808220849055858252812055600880548061180957634e487b7160e01b600052603160045260246000fd5b6001900381819060005260206000200160009055905550505050565b6000611830836108a9565b6001600160a01b039093166000908152600660209081526040808320868452825280832085905593825260079052919091209190915550565b6001600160a01b03821661188f5760405162461bcd60e51b815260040161047990612169565b61189881611075565b156118b55760405162461bcd60e51b815260040161047990611f44565b6118c160008383611494565b6001600160a01b03821660009081526003602052604081208054600192906118ea908490612500565b909155505060008181526002602052604080822080546001600160a01b0319166001600160a01b03861690811790915590518392907fddf252ad1be2c89b69c2b068fc378daa952ba7f163c4a11628f55a4df523b3ef908290a45050565b3b151590565b82805461195a9061256f565b90600052602060002090601f01602090048101928261197c57600085556119c2565b82601f1061199557805160ff19168380011785556119c2565b828001600101855582156119c2579182015b828111156119c25782518255916020019190600101906119a7565b506119ce9291506119d2565b5090565b5b808211156119ce57600081556001016119d3565b600067ffffffffffffffff831115611a0157611a01612605565b611a14601f8401601f19166020016124d6565b9050828152838383011115611a2857600080fd5b828260208301376000602084830101529392505050565b8035801515811461043557600080fd5b600060208284031215611a60578081fd5b8135610dff8161261b565b600060208284031215611a7c578081fd5b8151610dff8161261b565b60008060408385031215611a99578081fd5b8235611aa48161261b565b91506020830135611ab48161261b565b809150509250929050565b600080600060608486031215611ad3578081fd5b8335611ade8161261b565b92506020840135611aee8161261b565b929592945050506040919091013590565b60008060008060808587031215611b14578081fd5b8435611b1f8161261b565b93506020850135611b2f8161261b565b925060408501359150606085013567ffffffffffffffff811115611b51578182fd5b8501601f81018713611b61578182fd5b611b70878235602084016119e7565b91505092959194509250565b60008060408385031215611b8e578182fd5b8235611b998161261b565b9150611ba760208401611a3f565b90509250929050565b60008060408385031215611bc2578182fd5b8235611bcd8161261b565b946020939093013593505050565b60006020808385031215611bed578182fd5b823567ffffffffffffffff80821115611c04578384fd5b818501915085601f830112611c17578384fd5b813581811115611c2957611c29612605565b8381029150611c398483016124d6565b8181528481019084860184860187018a1015611c53578788fd5b8795505b83861015611c75578035835260019590950194918601918601611c57565b5098975050505050505050565b600060208284031215611c93578081fd5b610dff82611a3f565b600060208284031215611cad578081fd5b8135610dff81612630565b600060208284031215611cc9578081fd5b8151610dff81612630565b600060208284031215611ce5578081fd5b813567ffffffffffffffff811115611cfb578182fd5b8201601f81018413611d0b578182fd5b61117d848235602084016119e7565b600060208284031215611d2b578081fd5b5035919050565b60008060408385031215611d44578182fd5b50508035926020909101359150565b60008151808452611d6b816020860160208601612543565b601f01601f19169290920160200192915050565b60008351611d91818460208801612543565b835190830190611da5818360208801612543565b01949350505050565b6001600160a01b0391909116815260200190565b6001600160a01b0385811682528416602082015260408101839052608060608201819052600090611df590830184611d53565b9695505050505050565b6020808252825182820181905260009190848201906040850190845b81811015611e3757835183529284019291840191600101611e1b565b50909695505050505050565b901515815260200190565b600060208252610dff6020830184611d53565b6020808252602b908201527f455243373231456e756d657261626c653a206f776e657220696e646578206f7560408201526a74206f6620626f756e647360a81b606082015260800190565b60208082526032908201527f4552433732313a207472616e7366657220746f206e6f6e20455243373231526560408201527131b2b4bb32b91034b6b83632b6b2b73a32b960711b606082015260800190565b60208082526026908201527f4f776e61626c653a206e6577206f776e657220697320746865207a65726f206160408201526564647265737360d01b606082015260800190565b6020808252601c908201527f4552433732313a20746f6b656e20616c7265616479206d696e74656400000000604082015260600190565b6020808252601c908201527f53656e6420616e206576656e20616d6f756e74206f6620536f756c7300000000604082015260600190565b60208082526024908201527f4552433732313a207472616e7366657220746f20746865207a65726f206164646040820152637265737360e01b606082015260800190565b60208082526019908201527f4552433732313a20617070726f766520746f2063616c6c657200000000000000604082015260600190565b6020808252602c908201527f4552433732313a206f70657261746f7220717565727920666f72206e6f6e657860408201526b34b9ba32b73a103a37b5b2b760a11b606082015260800190565b60208082526038908201527f4552433732313a20617070726f76652063616c6c6572206973206e6f74206f7760408201527f6e6572206e6f7220617070726f76656420666f7220616c6c0000000000000000606082015260800190565b6020808252602a908201527f4552433732313a2062616c616e636520717565727920666f7220746865207a65604082015269726f206164647265737360b01b606082015260800190565b60208082526029908201527f4552433732313a206f776e657220717565727920666f72206e6f6e657869737460408201526832b73a103a37b5b2b760b91b606082015260800190565b6020808252818101527f4552433732313a206d696e7420746f20746865207a65726f2061646472657373604082015260600190565b6020808252600b908201526a135a5b9d081c185d5cd95960aa1b604082015260600190565b6020808252602c908201527f4552433732313a20617070726f76656420717565727920666f72206e6f6e657860408201526b34b9ba32b73a103a37b5b2b760a11b606082015260800190565b6020808252818101527f4f776e61626c653a2063616c6c6572206973206e6f7420746865206f776e6572604082015260600190565b60208082526017908201527f596f7520646f206e6f74206f776e20736f756c2074776f000000000000000000604082015260600190565b60208082526029908201527f4552433732313a207472616e73666572206f6620746f6b656e2074686174206960408201526839903737ba1037bbb760b91b606082015260800190565b6020808252601f908201527f45786365656473206d6178696d756d20536f756c5061737320737570706c7900604082015260600190565b6020808252602f908201527f4552433732314d657461646174613a2055524920717565727920666f72206e6f60408201526e3732bc34b9ba32b73a103a37b5b2b760891b606082015260800190565b60208082526017908201527f596f7520646f206e6f74206f776e20736f756c206f6e65000000000000000000604082015260600190565b60208082526021908201527f4552433732313a20617070726f76616c20746f2063757272656e74206f776e656040820152603960f91b606082015260800190565b60208082526018908201527f536f756c2074776f20616c726561647920636c61696d65640000000000000000604082015260600190565b60208082526031908201527f4552433732313a207472616e736665722063616c6c6572206973206e6f74206f6040820152701ddb995c881b9bdc88185c1c1c9bdd9959607a1b606082015260800190565b6020808252602c908201527f455243373231456e756d657261626c653a20676c6f62616c20696e646578206f60408201526b7574206f6620626f756e647360a01b606082015260800190565b60208082526018908201527f536f756c206f6e6520616c726561647920636c61696d65640000000000000000604082015260600190565b90815260200190565b60405181810167ffffffffffffffff811182821017156124f8576124f8612605565b604052919050565b60008219821115612513576125136125d9565b500190565b600082612527576125276125ef565b500490565b60008282101561253e5761253e6125d9565b500390565b60005b8381101561255e578181015183820152602001612546565b83811115610d685750506000910152565b60028104600182168061258357607f821691505b602082108114156125a457634e487b7160e01b600052602260045260246000fd5b50919050565b60006000198214156125be576125be6125d9565b5060010190565b6000826125d4576125d46125ef565b500690565b634e487b7160e01b600052601160045260246000fd5b634e487b7160e01b600052601260045260246000fd5b634e487b7160e01b600052604160045260246000fd5b6001600160a01b038116811461102e57600080fd5b6001600160e01b03198116811461102e57600080fdfea2646970667358221220aa24e1c7bc388221ef52d0c1054988661e83ecaa819a2418a26468d0eccfe8f764736f6c63430008000033",
  "devdoc": {
    "kind": "dev",
    "methods": {
      "approve(address,uint256)": {
        "details": "See {IERC721-approve}."
      },
      "balanceOf(address)": {
        "details": "See {IERC721-balanceOf}."
      },
      "getApproved(uint256)": {
        "details": "See {IERC721-getApproved}."
      },
      "isApprovedForAll(address,address)": {
        "details": "See {IERC721-isApprovedForAll}."
      },
      "name()": {
        "details": "See {IERC721Metadata-name}."
      },
      "owner()": {
        "details": "Returns the address of the current owner."
      },
      "ownerOf(uint256)": {
        "details": "See {IERC721-ownerOf}."
      },
      "renounceOwnership()": {
        "details": "Leaves the contract without owner. It will not be possible to call `onlyOwner` functions anymore. Can only be called by the current owner. NOTE: Renouncing ownership will leave the contract without an owner, thereby removing any functionality that is only available to the owner."
      },
      "safeTransferFrom(address,address,uint256)": {
        "details": "See {IERC721-safeTransferFrom}."
      },
      "safeTransferFrom(address,address,uint256,bytes)": {
        "details": "See {IERC721-safeTransferFrom}."
      },
      "setApprovalForAll(address,bool)": {
        "details": "See {IERC721-setApprovalForAll}."
      },
      "supportsInterface(bytes4)": {
        "details": "See {IERC165-supportsInterface}."
      },
      "symbol()": {
        "details": "See {IERC721Metadata-symbol}."
      },
      "tokenByIndex(uint256)": {
        "details": "See {IERC721Enumerable-tokenByIndex}."
      },
      "tokenOfOwnerByIndex(address,uint256)": {
        "details": "See {IERC721Enumerable-tokenOfOwnerByIndex}."
      },
      "tokenURI(uint256)": {
        "details": "See {IERC721Metadata-tokenURI}."
      },
      "totalSupply()": {
        "details": "See {IERC721Enumerable-totalSupply}."
      },
      "transferFrom(address,address,uint256)": {
        "details": "See {IERC721-transferFrom}."
      },
      "transferOwnership(address)": {
        "details": "Transfers ownership of the contract to a new account (`newOwner`). Can only be called by the current owner."
      }
    },
    "version": 1
  },
  "userdoc": {
    "kind": "user",
    "methods": {},
    "version": 1
  },
  "storageLayout": {
    "storage": [
      {
        "astId": 129,
        "contract": "contracts/SoulPass.sol:SoulPass",
        "label": "_name",
        "offset": 0,
        "slot": "0",
        "type": "t_string_storage"
      },
      {
        "astId": 131,
        "contract": "contracts/SoulPass.sol:SoulPass",
        "label": "_symbol",
        "offset": 0,
        "slot": "1",
        "type": "t_string_storage"
      },
      {
        "astId": 135,
        "contract": "contracts/SoulPass.sol:SoulPass",
        "label": "_owners",
        "offset": 0,
        "slot": "2",
        "type": "t_mapping(t_uint256,t_address)"
      },
      {
        "astId": 139,
        "contract": "contracts/SoulPass.sol:SoulPass",
        "label": "_balances",
        "offset": 0,
        "slot": "3",
        "type": "t_mapping(t_address,t_uint256)"
      },
      {
        "astId": 143,
        "contract": "contracts/SoulPass.sol:SoulPass",
        "label": "_tokenApprovals",
        "offset": 0,
        "slot": "4",
        "type": "t_mapping(t_uint256,t_address)"
      },
      {
        "astId": 149,
        "contract": "contracts/SoulPass.sol:SoulPass",
        "label": "_operatorApprovals",
        "offset": 0,
        "slot": "5",
        "type": "t_mapping(t_address,t_mapping(t_address,t_bool))"
      },
      {
        "astId": 1068,
        "contract": "contracts/SoulPass.sol:SoulPass",
        "label": "_ownedTokens",
        "offset": 0,
        "slot": "6",
        "type": "t_mapping(t_address,t_mapping(t_uint256,t_uint256))"
      },
      {
        "astId": 1072,
        "contract": "contracts/SoulPass.sol:SoulPass",
        "label": "_ownedTokensIndex",
        "offset": 0,
        "slot": "7",
        "type": "t_mapping(t_uint256,t_uint256)"
      },
      {
        "astId": 1075,
        "contract": "contracts/SoulPass.sol:SoulPass",
        "label": "_allTokens",
        "offset": 0,
        "slot": "8",
        "type": "t_array(t_uint256)dyn_storage"
      },
      {
        "astId": 1079,
        "contract": "contracts/SoulPass.sol:SoulPass",
        "label": "_allTokensIndex",
        "offset": 0,
        "slot": "9",
        "type": "t_mapping(t_uint256,t_uint256)"
      },
      {
        "astId": 7,
        "contract": "contracts/SoulPass.sol:SoulPass",
        "label": "_owner",
        "offset": 0,
        "slot": "10",
        "type": "t_address"
      },
      {
        "astId": 2826,
        "contract": "contracts/SoulPass.sol:SoulPass",
        "label": "SOUL_PROVENANCE",
        "offset": 0,
        "slot": "11",
        "type": "t_string_storage"
      },
      {
        "astId": 2828,
        "contract": "contracts/SoulPass.sol:SoulPass",
        "label": "_baseTokenURI",
        "offset": 0,
        "slot": "12",
        "type": "t_string_storage"
      },
      {
        "astId": 2834,
        "contract": "contracts/SoulPass.sol:SoulPass",
        "label": "mintPaused",
        "offset": 0,
        "slot": "13",
        "type": "t_bool"
      },
      {
        "astId": 2838,
        "contract": "contracts/SoulPass.sol:SoulPass",
        "label": "soulClaimed",
        "offset": 0,
        "slot": "14",
        "type": "t_mapping(t_uint256,t_bool)"
      },
      {
        "astId": 2840,
        "contract": "contracts/SoulPass.sol:SoulPass",
        "label": "lostSouls",
        "offset": 0,
        "slot": "15",
        "type": "t_address"
      }
    ],
    "types": {
      "t_address": {
        "encoding": "inplace",
        "label": "address",
        "numberOfBytes": "20"
      },
      "t_array(t_uint256)dyn_storage": {
        "base": "t_uint256",
        "encoding": "dynamic_array",
        "label": "uint256[]",
        "numberOfBytes": "32"
      },
      "t_bool": {
        "encoding": "inplace",
        "label": "bool",
        "numberOfBytes": "1"
      },
      "t_mapping(t_address,t_bool)": {
        "encoding": "mapping",
        "key": "t_address",
        "label": "mapping(address => bool)",
        "numberOfBytes": "32",
        "value": "t_bool"
      },
      "t_mapping(t_address,t_mapping(t_address,t_bool))": {
        "encoding": "mapping",
        "key": "t_address",
        "label": "mapping(address => mapping(address => bool))",
        "numberOfBytes": "32",
        "value": "t_mapping(t_address,t_bool)"
      },
      "t_mapping(t_address,t_mapping(t_uint256,t_uint256))": {
        "encoding": "mapping",
        "key": "t_address",
        "label": "mapping(address => mapping(uint256 => uint256))",
        "numberOfBytes": "32",
        "value": "t_mapping(t_uint256,t_uint256)"
      },
      "t_mapping(t_address,t_uint256)": {
        "encoding": "mapping",
        "key": "t_address",
        "label": "mapping(address => uint256)",
        "numberOfBytes": "32",
        "value": "t_uint256"
      },
      "t_mapping(t_uint256,t_address)": {
        "encoding": "mapping",
        "key": "t_uint256",
        "label": "mapping(uint256 => address)",
        "numberOfBytes": "32",
        "value": "t_address"
      },
      "t_mapping(t_uint256,t_bool)": {
        "encoding": "mapping",
        "key": "t_uint256",
        "label": "mapping(uint256 => bool)",
        "numberOfBytes": "32",
        "value": "t_bool"
      },
      "t_mapping(t_uint256,t_uint256)": {
        "encoding": "mapping",
        "key": "t_uint256",
        "label": "mapping(uint256 => uint256)",
        "numberOfBytes": "32",
        "value": "t_uint256"
      },
      "t_string_storage": {
        "encoding": "bytes",
        "label": "string",
        "numberOfBytes": "32"
      },
      "t_uint256": {
        "encoding": "inplace",
        "label": "uint256",
        "numberOfBytes": "32"
      }
    }
  }
}